{
  "address": "0xd55e2783231777Ee1f601dd9c75E7D59bcc2f544",
  "abi": [
    {
      "inputs": [],
      "stateMutability": "nonpayable",
      "type": "constructor"
    },
    {
      "anonymous": false,
      "inputs": [
        {
          "indexed": true,
          "internalType": "address",
          "name": "account",
          "type": "address"
        },
        {
          "indexed": false,
          "internalType": "uint256",
          "name": "indexOf",
          "type": "uint256"
        }
      ],
      "name": "AddedAccount",
      "type": "event"
    },
    {
      "inputs": [
        {
          "internalType": "address",
          "name": "_account",
          "type": "address"
        }
      ],
      "name": "accountPermitted",
      "outputs": [
        {
          "internalType": "bool",
          "name": "",
          "type": "bool"
        }
      ],
      "stateMutability": "view",
      "type": "function"
    },
    {
      "inputs": [
        {
          "internalType": "address",
          "name": "account",
          "type": "address"
        }
      ],
      "name": "addAccount",
      "outputs": [
        {
          "internalType": "bool",
          "name": "",
          "type": "bool"
        }
      ],
      "stateMutability": "nonpayable",
      "type": "function"
    },
    {
      "inputs": [],
      "name": "admin",
      "outputs": [
        {
          "internalType": "address",
          "name": "",
          "type": "address"
        }
      ],
      "stateMutability": "view",
      "type": "function"
    },
    {
      "inputs": [
        {
          "internalType": "uint256",
          "name": "",
          "type": "uint256"
        }
      ],
      "name": "allowlist",
      "outputs": [
        {
          "internalType": "address",
          "name": "",
          "type": "address"
        }
      ],
      "stateMutability": "view",
      "type": "function"
    },
    {
      "inputs": [
        {
          "internalType": "address",
          "name": "account",
          "type": "address"
        }
      ],
      "name": "removeAccount",
      "outputs": [
        {
          "internalType": "bool",
          "name": "",
          "type": "bool"
        }
      ],
      "stateMutability": "nonpayable",
      "type": "function"
    }
  ],
  "transactionHash": "0xd4379e67a20e98d69ce084a37dc8a3ef7c90312864175b1af03f3e080f878be1",
  "args": [],
  "solcInputHash": "e1af43b2c04c1effdf1f0485c7ba63ee",
  "bytecode": "0x608060405234801561001057600080fd5b50600080546001600160a01b0319163390811790915561002f90610035565b506100f0565b6001600160a01b0381166000908152600260205260408120546100e8576001805480820182557fb10e2d527612073b26eecdfd717e6a320cf44b4afac2b0732d9fcbe2b7fa0cf60180546001600160a01b0319166001600160a01b038516908117909155905460008281526002602090815260409182902083905590519182527f7ea36d91ba2f0ec8be46f6497901e8b727aea876fd973412e8bdf13235544950910160405180910390a2506001919050565b506000919050565b6103ef806100ff6000396000f3fe608060405234801561001057600080fd5b50600436106100575760003560e01c80630f68f0b31461005c57806369c458241461009c578063c4740a95146100c7578063e89b0e1e146100da578063f851a440146100ed575b600080fd5b61008761006a366004610357565b6001600160a01b0316600090815260026020526040902054151590565b60405190151581526020015b60405180910390f35b6100af6100aa36600461037e565b610100565b6040516001600160a01b039091168152602001610093565b6100876100d5366004610357565b61012a565b6100876100e8366004610357565b61013d565b6000546100af906001600160a01b031681565b6001818154811061011057600080fd5b6000918252602090912001546001600160a01b0316905081565b60008061013683610149565b9392505050565b6000806101368361029c565b6001600160a01b038116600090815260026020526040812054801580159061017357506001548111155b1561029357600154811461022f576001805460009190610194908290610396565b815481106101b257634e487b7160e01b600052603260045260246000fd5b6000918252602090912001546001600160a01b031690508060016101d68185610396565b815481106101f457634e487b7160e01b600052603260045260246000fd5b600091825260208083209190910180546001600160a01b0319166001600160a01b039485161790559290911681526002909152604090208190555b600180548061024e57634e487b7160e01b600052603160045260246000fd5b60008281526020808220830160001990810180546001600160a01b03191690559092019092556001600160a01b03949094168152600290935250506040812055600190565b50600092915050565b6001600160a01b03811660009081526002602052604081205461034f576001805480820182557fb10e2d527612073b26eecdfd717e6a320cf44b4afac2b0732d9fcbe2b7fa0cf60180546001600160a01b0319166001600160a01b038516908117909155905460008281526002602090815260409182902083905590519182527f7ea36d91ba2f0ec8be46f6497901e8b727aea876fd973412e8bdf13235544950910160405180910390a2506001919050565b506000919050565b600060208284031215610368578081fd5b81356001600160a01b0381168114610136578182fd5b60006020828403121561038f578081fd5b5035919050565b6000828210156103b457634e487b7160e01b81526011600452602481fd5b50039056fea26469706673582212205c9e68a2eba20243562eb2475fc6fe112a6776a6dd81c9aec17e3f3e9e0f054364736f6c63430008040033",
  "devdoc": {
    "kind": "dev",
    "methods": {},
    "version": 1
  },
  "userdoc": {
    "kind": "user",
    "methods": {},
    "version": 1
  },
  "storageLayout": {
    "storage": [
      {
        "astId": 8818,
        "contract": "contracts/mock_contracts/accountRules.sol:AccountRules",
        "label": "admin",
        "offset": 0,
        "slot": "0",
        "type": "t_address"
      },
      {
        "astId": 8821,
        "contract": "contracts/mock_contracts/accountRules.sol:AccountRules",
        "label": "allowlist",
        "offset": 0,
        "slot": "1",
        "type": "t_array(t_address)dyn_storage"
      },
      {
        "astId": 8825,
        "contract": "contracts/mock_contracts/accountRules.sol:AccountRules",
        "label": "indexOf",
        "offset": 0,
        "slot": "2",
        "type": "t_mapping(t_address,t_uint256)"
      }
    ],
    "types": {
      "t_address": {
        "encoding": "inplace",
        "label": "address",
        "numberOfBytes": "20"
      },
      "t_array(t_address)dyn_storage": {
        "base": "t_address",
        "encoding": "dynamic_array",
        "label": "address[]",
        "numberOfBytes": "32"
      },
      "t_mapping(t_address,t_uint256)": {
        "encoding": "mapping",
        "key": "t_address",
        "label": "mapping(address => uint256)",
        "numberOfBytes": "32",
        "value": "t_uint256"
      },
      "t_uint256": {
        "encoding": "inplace",
        "label": "uint256",
        "numberOfBytes": "32"
      }
    }
  }
}