{
  "address": "0x62dED3dc468C96290Db0D4b651f6e104e0fDCf84",
  "abi": [
    {
      "inputs": [
        {
          "internalType": "address",
          "name": "creator",
          "type": "address"
        }
      ],
      "stateMutability": "nonpayable",
      "type": "constructor"
    },
    {
      "anonymous": false,
      "inputs": [
        {
          "indexed": true,
          "internalType": "address",
          "name": "dplAddr",
          "type": "address"
        },
        {
          "indexed": true,
          "internalType": "address",
          "name": "ownerAddr",
          "type": "address"
        },
        {
          "indexed": false,
          "internalType": "bytes32",
          "name": "deplName",
          "type": "bytes32"
        },
        {
          "indexed": false,
          "internalType": "uint256",
          "name": "version",
          "type": "uint256"
        }
      ],
      "name": "DeplRecordAdded",
      "type": "event"
    },
    {
      "anonymous": false,
      "inputs": [
        {
          "indexed": true,
          "internalType": "address",
          "name": "dplAddr",
          "type": "address"
        },
        {
          "indexed": true,
          "internalType": "address",
          "name": "ownerAddr",
          "type": "address"
        },
        {
          "indexed": false,
          "internalType": "bytes32",
          "name": "deplName",
          "type": "bytes32"
        },
        {
          "indexed": false,
          "internalType": "uint256",
          "name": "version",
          "type": "uint256"
        }
      ],
      "name": "DeplRecordRemoved",
      "type": "event"
    },
    {
      "anonymous": false,
      "inputs": [
        {
          "indexed": true,
          "internalType": "bytes32",
          "name": "role",
          "type": "bytes32"
        },
        {
          "indexed": true,
          "internalType": "bytes32",
          "name": "previousAdminRole",
          "type": "bytes32"
        },
        {
          "indexed": true,
          "internalType": "bytes32",
          "name": "newAdminRole",
          "type": "bytes32"
        }
      ],
      "name": "RoleAdminChanged",
      "type": "event"
    },
    {
      "anonymous": false,
      "inputs": [
        {
          "indexed": true,
          "internalType": "bytes32",
          "name": "role",
          "type": "bytes32"
        },
        {
          "indexed": true,
          "internalType": "address",
          "name": "account",
          "type": "address"
        },
        {
          "indexed": true,
          "internalType": "address",
          "name": "sender",
          "type": "address"
        }
      ],
      "name": "RoleGranted",
      "type": "event"
    },
    {
      "anonymous": false,
      "inputs": [
        {
          "indexed": true,
          "internalType": "bytes32",
          "name": "role",
          "type": "bytes32"
        },
        {
          "indexed": true,
          "internalType": "address",
          "name": "account",
          "type": "address"
        },
        {
          "indexed": true,
          "internalType": "address",
          "name": "sender",
          "type": "address"
        }
      ],
      "name": "RoleRevoked",
      "type": "event"
    },
    {
      "inputs": [],
      "name": "DEFAULT_ADMIN_ROLE",
      "outputs": [
        {
          "internalType": "bytes32",
          "name": "",
          "type": "bytes32"
        }
      ],
      "stateMutability": "view",
      "type": "function"
    },
    {
      "inputs": [],
      "name": "FACTORY_RECORD_ROLE",
      "outputs": [
        {
          "internalType": "bytes32",
          "name": "",
          "type": "bytes32"
        }
      ],
      "stateMutability": "view",
      "type": "function"
    },
    {
      "inputs": [
        {
          "internalType": "address",
          "name": "_deplAddr",
          "type": "address"
        },
        {
          "internalType": "address",
          "name": "_ownerAddr",
          "type": "address"
        },
        {
          "internalType": "bytes32",
          "name": "_deplName",
          "type": "bytes32"
        },
        {
          "internalType": "uint256",
          "name": "_version",
          "type": "uint256"
        }
      ],
      "name": "addDepl",
      "outputs": [
        {
          "internalType": "bool",
          "name": "",
          "type": "bool"
        }
      ],
      "stateMutability": "nonpayable",
      "type": "function"
    },
    {
      "inputs": [
        {
          "internalType": "uint256",
          "name": "",
          "type": "uint256"
        }
      ],
      "name": "contractDepls",
      "outputs": [
        {
          "internalType": "address",
          "name": "deplAddr",
          "type": "address"
        },
        {
          "internalType": "address",
          "name": "ownerAddr",
          "type": "address"
        },
        {
          "internalType": "bytes32",
          "name": "deplName",
          "type": "bytes32"
        },
        {
          "internalType": "uint256",
          "name": "version",
          "type": "uint256"
        }
      ],
      "stateMutability": "view",
      "type": "function"
    },
    {
      "inputs": [
        {
          "internalType": "bytes32",
          "name": "",
          "type": "bytes32"
        }
      ],
      "name": "deplCounter",
      "outputs": [
        {
          "internalType": "uint256",
          "name": "_value",
          "type": "uint256"
        }
      ],
      "stateMutability": "view",
      "type": "function"
    },
    {
      "inputs": [],
      "name": "getContractDeplList",
      "outputs": [
        {
          "components": [
            {
              "internalType": "address",
              "name": "deplAddr",
              "type": "address"
            },
            {
              "internalType": "address",
              "name": "ownerAddr",
              "type": "address"
            },
            {
              "internalType": "bytes32",
              "name": "deplName",
              "type": "bytes32"
            },
            {
              "internalType": "uint256",
              "name": "version",
              "type": "uint256"
            }
          ],
          "internalType": "struct FactoryRecords.ContractDepl[]",
          "name": "",
          "type": "tuple[]"
        }
      ],
      "stateMutability": "view",
      "type": "function"
    },
    {
      "inputs": [
        {
          "internalType": "bytes32",
          "name": "_deplName",
          "type": "bytes32"
        }
      ],
      "name": "getCountByContractName",
      "outputs": [
        {
          "internalType": "uint256",
          "name": "",
          "type": "uint256"
        }
      ],
      "stateMutability": "view",
      "type": "function"
    },
    {
      "inputs": [
        {
          "internalType": "address",
          "name": "_ownerAddr",
          "type": "address"
        }
      ],
      "name": "getCountByUserAddr",
      "outputs": [
        {
          "internalType": "uint256",
          "name": "",
          "type": "uint256"
        }
      ],
      "stateMutability": "view",
      "type": "function"
    },
    {
      "inputs": [
        {
          "internalType": "bytes32",
          "name": "role",
          "type": "bytes32"
        }
      ],
      "name": "getRoleAdmin",
      "outputs": [
        {
          "internalType": "bytes32",
          "name": "",
          "type": "bytes32"
        }
      ],
      "stateMutability": "view",
      "type": "function"
    },
    {
      "inputs": [
        {
          "internalType": "bytes32",
          "name": "role",
          "type": "bytes32"
        },
        {
          "internalType": "uint256",
          "name": "index",
          "type": "uint256"
        }
      ],
      "name": "getRoleMember",
      "outputs": [
        {
          "internalType": "address",
          "name": "",
          "type": "address"
        }
      ],
      "stateMutability": "view",
      "type": "function"
    },
    {
      "inputs": [
        {
          "internalType": "bytes32",
          "name": "role",
          "type": "bytes32"
        }
      ],
      "name": "getRoleMemberCount",
      "outputs": [
        {
          "internalType": "uint256",
          "name": "",
          "type": "uint256"
        }
      ],
      "stateMutability": "view",
      "type": "function"
    },
    {
      "inputs": [
        {
          "internalType": "bytes32",
          "name": "role",
          "type": "bytes32"
        },
        {
          "internalType": "address",
          "name": "account",
          "type": "address"
        }
      ],
      "name": "grantRole",
      "outputs": [],
      "stateMutability": "nonpayable",
      "type": "function"
    },
    {
      "inputs": [
        {
          "internalType": "bytes32",
          "name": "role",
          "type": "bytes32"
        },
        {
          "internalType": "address",
          "name": "account",
          "type": "address"
        }
      ],
      "name": "hasRole",
      "outputs": [
        {
          "internalType": "bool",
          "name": "",
          "type": "bool"
        }
      ],
      "stateMutability": "view",
      "type": "function"
    },
    {
      "inputs": [
        {
          "internalType": "address",
          "name": "_deplAddr",
          "type": "address"
        }
      ],
      "name": "removeDepl",
      "outputs": [
        {
          "internalType": "bool",
          "name": "",
          "type": "bool"
        }
      ],
      "stateMutability": "nonpayable",
      "type": "function"
    },
    {
      "inputs": [
        {
          "internalType": "bytes32",
          "name": "role",
          "type": "bytes32"
        },
        {
          "internalType": "address",
          "name": "account",
          "type": "address"
        }
      ],
      "name": "renounceRole",
      "outputs": [],
      "stateMutability": "nonpayable",
      "type": "function"
    },
    {
      "inputs": [
        {
          "internalType": "bytes32",
          "name": "role",
          "type": "bytes32"
        },
        {
          "internalType": "address",
          "name": "account",
          "type": "address"
        }
      ],
      "name": "revokeRole",
      "outputs": [],
      "stateMutability": "nonpayable",
      "type": "function"
    },
    {
      "inputs": [
        {
          "internalType": "bytes4",
          "name": "interfaceId",
          "type": "bytes4"
        }
      ],
      "name": "supportsInterface",
      "outputs": [
        {
          "internalType": "bool",
          "name": "",
          "type": "bool"
        }
      ],
      "stateMutability": "view",
      "type": "function"
    },
    {
      "inputs": [
        {
          "internalType": "address",
          "name": "",
          "type": "address"
        }
      ],
      "name": "userDplCounter",
      "outputs": [
        {
          "internalType": "uint256",
          "name": "_value",
          "type": "uint256"
        }
      ],
      "stateMutability": "view",
      "type": "function"
    }
  ],
  "transactionHash": "0xf120f870bda63c355894266e1e51a33090dc7f66d3d63628e5eb79f8d4fc4099",
  "args": [
    "0xBeee02B6884e92Ac9a4477b4A045E86B49A7EBd3"
  ],
  "solcInputHash": "22492bf2bddef8a64cedc5d6d8d5e9ff",
  "bytecode": "0x60806040523480156200001157600080fd5b50604051620015a8380380620015a88339810160408190526200003491620001e7565b6200004f600080516020620015888339815191523362000082565b336001600160a01b038216146200007b576200007b600080516020620015888339815191528262000082565b5062000217565b620000998282620000c560201b62000a291760201c565b6000828152600160209081526040909120620000c091839062000a37620000d5821b17901c565b505050565b620000d18282620000f5565b5050565b6000620000ec836001600160a01b03841662000195565b90505b92915050565b6000828152602081815260408083206001600160a01b038516845290915290205460ff16620000d1576000828152602081815260408083206001600160a01b03851684529091529020805460ff19166001179055620001513390565b6001600160a01b0316816001600160a01b0316837f2f8788117e7eff1d82e926ec794901d17c78024a50270940304540a733656f0d60405160405180910390a45050565b6000818152600183016020526040812054620001de57508154600181810184556000848152602080822090930184905584548482528286019093526040902091909155620000ef565b506000620000ef565b600060208284031215620001f9578081fd5b81516001600160a01b038116811462000210578182fd5b9392505050565b61136180620002276000396000f3fe608060405234801561001057600080fd5b50600436106101165760003560e01c8063909ceeed116100a2578063a217fddf11610071578063a217fddf146102a6578063bdb6f317146102ae578063c56d5099146102c1578063ca15c873146102d6578063d547741f146102e957600080fd5b8063909ceeed1461022d57806391d14854146102405780639f91365214610253578063a1e2f3601461029157600080fd5b806341455508116100e9578063414555081461019c5780635828de8d146101bc57806358a7c4ed146101cf578063690df752146101ef5780639010d07c1461020257600080fd5b806301ffc9a71461011b578063248a9ca3146101435780632f2ff15d1461017457806336568abe14610189575b600080fd5b61012e610129366004611120565b6102fc565b60405190151581526020015b60405180910390f35b6101666101513660046110bc565b60009081526020819052604090206001015490565b60405190815260200161013a565b6101876101823660046110d4565b610327565b005b6101876101973660046110d4565b61034e565b6101666101aa3660046110bc565b60046020526000908152604090205481565b61012e6101ca366004611061565b610370565b6101666101dd366004611061565b60056020526000908152604090205481565b6101666101fd3660046110bc565b610679565b6102156102103660046110ff565b61068d565b6040516001600160a01b03909116815260200161013a565b61016661023b366004611061565b6106ac565b61012e61024e3660046110d4565b6106ca565b6102666102613660046110bc565b6106f3565b604080516001600160a01b03958616815294909316602085015291830152606082015260800161013a565b610299610739565b60405161013a91906111bd565b610166600081565b61012e6102bc36600461107b565b6107e2565b61016660008051602061130c83398151915281565b6101666102e43660046110bc565b610a08565b6101876102f73660046110d4565b610a1f565b60006001600160e01b03198216635a05180f60e01b1480610321575061032182610a4c565b92915050565b6103318282610a81565b60008281526001602052604090206103499082610a37565b505050565b6103588282610aa7565b60008281526001602052604090206103499082610b21565b600060008051602061130c83398151915261038b8133610b36565b6001600160a01b03831660009081526003602052604090205480158015906103b557506002548111155b1561062657600060026103c9600184611297565b815481106103e757634e487b7160e01b600052603260045260246000fd5b600091825260209182902060408051608081018252600490930290910180546001600160a01b039081168452600182015416938301939093526002808401549183019190915260039092015460608201529054909150821461055157600280546000919061045790600190611297565b8154811061047557634e487b7160e01b600052603260045260246000fd5b600091825260209182902060408051608081018252600490930290910180546001600160a01b039081168452600180830154909116948401949094526002808201549284019290925260030154606083015290925082916104d69086611297565b815481106104f457634e487b7160e01b600052603260045260246000fd5b6000918252602091829020835160049092020180546001600160a01b039283166001600160a01b03199182161782559284015160018201805491909316931692909217905560408201516002820155606090910151600390910155505b600280548061057057634e487b7160e01b600052603160045260246000fd5b600082815260208082206004600019949094019384020180546001600160a01b031990811682556001820180549091169055600281018390556003908101839055929093556001600160a01b038881168252918352604080822091909155838301518451858301516060870151845191825295810195909552908316939216917f8e315682b9df9000048a8a9f8bedeefabea91d7208f874508c439dea8833245f910160405180910390a3600193505050610673565b60405162461bcd60e51b815260206004820152601f60248201527f436f6e747261637420646f6e277420657869737420696e207265636f7264730060448201526064015b60405180910390fd5b50919050565b600081815260046020526040812054610321565b60008281526001602052604081206106a59083610b9a565b9392505050565b6001600160a01b038116600090815260056020526040812054610321565b6000918252602082815260408084206001600160a01b0393909316845291905290205460ff1690565b6002818154811061070357600080fd5b600091825260209091206004909102018054600182015460028301546003909301546001600160a01b0392831694509116919084565b606060008051602061130c8339815191526107548133610b36565b6002805480602002602001604051908101604052809291908181526020016000905b828210156107d8576000848152602090819020604080516080810182526004860290920180546001600160a01b039081168452600180830154909116848601526002820154928401929092526003015460608301529083529092019101610776565b5050505091505090565b600060008051602061130c8339815191526107fd8133610b36565b6001600160a01b0386166000908152600360205260409020546109b757604080516080810182526001600160a01b0380891680835288821660208085019182528486018a8152606086018a8152600280546001810182556000828152985160049182027f405787fa12a823e0f2b7631cc41b3ba8828b3321ca811111fa75cd3aa3bb5ace81018054928b166001600160a01b031993841617905596517f405787fa12a823e0f2b7631cc41b3ba8828b3321ca811111fa75cd3aa3bb5acf8801805491909a1691161790975591517f405787fa12a823e0f2b7631cc41b3ba8828b3321ca811111fa75cd3aa3bb5ad0850155517f405787fa12a823e0f2b7631cc41b3ba8828b3321ca811111fa75cd3aa3bb5ad1909301929092559054918452600381528484209190915587835252206109399080546001019055565b6001600160a01b038516600090815260056020526040902080546001019055846001600160a01b0316866001600160a01b03167f446c65526a0a35e1205bc3940635498146364acc7c832e94581eae5c31471e5086866040516109a6929190918252602082015260400190565b60405180910390a3600191506109ff565b60405162461bcd60e51b815260206004820152601d60248201527f436f6e747261637420616c726561647920726567697374657265642021000000604482015260640161066a565b50949350505050565b600081815260016020526040812061032190610ba6565b6103588282610bb0565b610a338282610bd6565b5050565b60006106a5836001600160a01b038416610c5a565b60006001600160e01b03198216637965db0b60e01b148061032157506301ffc9a760e01b6001600160e01b0319831614610321565b600082815260208190526040902060010154610a9d8133610b36565b6103498383610bd6565b6001600160a01b0381163314610b175760405162461bcd60e51b815260206004820152602f60248201527f416363657373436f6e74726f6c3a2063616e206f6e6c792072656e6f756e636560448201526e103937b632b9903337b91039b2b63360891b606482015260840161066a565b610a338282610ca9565b60006106a5836001600160a01b038416610d0e565b610b4082826106ca565b610a3357610b58816001600160a01b03166014610e2b565b610b63836020610e2b565b604051602001610b74929190611148565b60408051601f198184030181529082905262461bcd60e51b825261066a9160040161122d565b60006106a5838361100d565b6000610321825490565b600082815260208190526040902060010154610bcc8133610b36565b6103498383610ca9565b610be082826106ca565b610a33576000828152602081815260408083206001600160a01b03851684529091529020805460ff19166001179055610c163390565b6001600160a01b0316816001600160a01b0316837f2f8788117e7eff1d82e926ec794901d17c78024a50270940304540a733656f0d60405160405180910390a45050565b6000818152600183016020526040812054610ca157508154600181810184556000848152602080822090930184905584548482528286019093526040902091909155610321565b506000610321565b610cb382826106ca565b15610a33576000828152602081815260408083206001600160a01b0385168085529252808320805460ff1916905551339285917ff6391f5c32d9c69d2a47ea670b442974b53935d1edc7fd64eb21e047a839171b9190a45050565b60008181526001830160205260408120548015610e21576000610d32600183611297565b8554909150600090610d4690600190611297565b9050818114610dc7576000866000018281548110610d7457634e487b7160e01b600052603260045260246000fd5b9060005260206000200154905080876000018481548110610da557634e487b7160e01b600052603260045260246000fd5b6000918252602080832090910192909255918252600188019052604090208390555b8554869080610de657634e487b7160e01b600052603160045260246000fd5b600190038181906000526020600020016000905590558560010160008681526020019081526020016000206000905560019350505050610321565b6000915050610321565b60606000610e3a836002611278565b610e45906002611260565b67ffffffffffffffff811115610e6b57634e487b7160e01b600052604160045260246000fd5b6040519080825280601f01601f191660200182016040528015610e95576020820181803683370190505b509050600360fc1b81600081518110610ebe57634e487b7160e01b600052603260045260246000fd5b60200101906001600160f81b031916908160001a905350600f60fb1b81600181518110610efb57634e487b7160e01b600052603260045260246000fd5b60200101906001600160f81b031916908160001a9053506000610f1f846002611278565b610f2a906001611260565b90505b6001811115610fbe576f181899199a1a9b1b9c1cb0b131b232b360811b85600f1660108110610f6c57634e487b7160e01b600052603260045260246000fd5b1a60f81b828281518110610f9057634e487b7160e01b600052603260045260246000fd5b60200101906001600160f81b031916908160001a90535060049490941c93610fb7816112de565b9050610f2d565b5083156106a55760405162461bcd60e51b815260206004820181905260248201527f537472696e67733a20686578206c656e67746820696e73756666696369656e74604482015260640161066a565b600082600001828154811061103257634e487b7160e01b600052603260045260246000fd5b9060005260206000200154905092915050565b80356001600160a01b038116811461105c57600080fd5b919050565b600060208284031215611072578081fd5b6106a582611045565b60008060008060808587031215611090578283fd5b61109985611045565b93506110a760208601611045565b93969395505050506040820135916060013590565b6000602082840312156110cd578081fd5b5035919050565b600080604083850312156110e6578182fd5b823591506110f660208401611045565b90509250929050565b60008060408385031215611111578182fd5b50508035926020909101359150565b600060208284031215611131578081fd5b81356001600160e01b0319811681146106a5578182fd5b7f416363657373436f6e74726f6c3a206163636f756e74200000000000000000008152600083516111808160178501602088016112ae565b7001034b99036b4b9b9b4b733903937b6329607d1b60179184019182015283516111b18160288401602088016112ae565b01602801949350505050565b602080825282518282018190526000919060409081850190868401855b8281101561122057815180516001600160a01b039081168652878201511687860152858101518686015260609081015190850152608090930192908501906001016111da565b5091979650505050505050565b602081526000825180602084015261124c8160408501602087016112ae565b601f01601f19169190910160400192915050565b60008219821115611273576112736112f5565b500190565b6000816000190483118215151615611292576112926112f5565b500290565b6000828210156112a9576112a96112f5565b500390565b60005b838110156112c95781810151838201526020016112b1565b838111156112d8576000848401525b50505050565b6000816112ed576112ed6112f5565b506000190190565b634e487b7160e01b600052601160045260246000fdfe5b724b4af9f3b443988e81196b03ec5c21da9ff8c7063cf5bfbf3f5cdfec953da2646970667358221220634864265d6a28b3cb70cd6484487ecdffc80e7055e4300d912413b00e48466464736f6c634300080400335b724b4af9f3b443988e81196b03ec5c21da9ff8c7063cf5bfbf3f5cdfec953d",
  "devdoc": {
    "kind": "dev",
    "methods": {
      "getRoleAdmin(bytes32)": {
        "details": "Returns the admin role that controls `role`. See {grantRole} and {revokeRole}. To change a role's admin, use {_setRoleAdmin}."
      },
      "getRoleMember(bytes32,uint256)": {
        "details": "Returns one of the accounts that have `role`. `index` must be a value between 0 and {getRoleMemberCount}, non-inclusive. Role bearers are not sorted in any particular way, and their ordering may change at any point. WARNING: When using {getRoleMember} and {getRoleMemberCount}, make sure you perform all queries on the same block. See the following https://forum.openzeppelin.com/t/iterating-over-elements-on-enumerableset-in-openzeppelin-contracts/2296[forum post] for more information."
      },
      "getRoleMemberCount(bytes32)": {
        "details": "Returns the number of accounts that have `role`. Can be used together with {getRoleMember} to enumerate all bearers of a role."
      },
      "grantRole(bytes32,address)": {
        "details": "Overload {grantRole} to track enumerable memberships"
      },
      "hasRole(bytes32,address)": {
        "details": "Returns `true` if `account` has been granted `role`."
      },
      "renounceRole(bytes32,address)": {
        "details": "Overload {renounceRole} to track enumerable memberships"
      },
      "revokeRole(bytes32,address)": {
        "details": "Overload {revokeRole} to track enumerable memberships"
      },
      "supportsInterface(bytes4)": {
        "details": "See {IERC165-supportsInterface}."
      }
    },
    "version": 1
  },
  "userdoc": {
    "kind": "user",
    "methods": {},
    "version": 1
  },
  "storageLayout": {
    "storage": [
      {
        "astId": 4465,
        "contract": "contracts/factoryrecords.sol:FactoryRecords",
        "label": "_roles",
        "offset": 0,
        "slot": "0",
        "type": "t_mapping(t_bytes32,t_struct(RoleData)4460_storage)"
      },
      {
        "astId": 4766,
        "contract": "contracts/factoryrecords.sol:FactoryRecords",
        "label": "_roleMembers",
        "offset": 0,
        "slot": "1",
        "type": "t_mapping(t_bytes32,t_struct(AddressSet)7576_storage)"
      },
      {
        "astId": 8406,
        "contract": "contracts/factoryrecords.sol:FactoryRecords",
        "label": "contractDepls",
        "offset": 0,
        "slot": "2",
        "type": "t_array(t_struct(ContractDepl)8397_storage)dyn_storage"
      },
      {
        "astId": 8410,
        "contract": "contracts/factoryrecords.sol:FactoryRecords",
        "label": "indexOfContractDepl",
        "offset": 0,
        "slot": "3",
        "type": "t_mapping(t_address,t_uint256)"
      },
      {
        "astId": 8415,
        "contract": "contracts/factoryrecords.sol:FactoryRecords",
        "label": "deplCounter",
        "offset": 0,
        "slot": "4",
        "type": "t_mapping(t_bytes32,t_struct(Counter)6867_storage)"
      },
      {
        "astId": 8420,
        "contract": "contracts/factoryrecords.sol:FactoryRecords",
        "label": "userDplCounter",
        "offset": 0,
        "slot": "5",
        "type": "t_mapping(t_address,t_struct(Counter)6867_storage)"
      }
    ],
    "types": {
      "t_address": {
        "encoding": "inplace",
        "label": "address",
        "numberOfBytes": "20"
      },
      "t_array(t_bytes32)dyn_storage": {
        "base": "t_bytes32",
        "encoding": "dynamic_array",
        "label": "bytes32[]",
        "numberOfBytes": "32"
      },
      "t_array(t_struct(ContractDepl)8397_storage)dyn_storage": {
        "base": "t_struct(ContractDepl)8397_storage",
        "encoding": "dynamic_array",
        "label": "struct FactoryRecords.ContractDepl[]",
        "numberOfBytes": "32"
      },
      "t_bool": {
        "encoding": "inplace",
        "label": "bool",
        "numberOfBytes": "1"
      },
      "t_bytes32": {
        "encoding": "inplace",
        "label": "bytes32",
        "numberOfBytes": "32"
      },
      "t_mapping(t_address,t_bool)": {
        "encoding": "mapping",
        "key": "t_address",
        "label": "mapping(address => bool)",
        "numberOfBytes": "32",
        "value": "t_bool"
      },
      "t_mapping(t_address,t_struct(Counter)6867_storage)": {
        "encoding": "mapping",
        "key": "t_address",
        "label": "mapping(address => struct Counters.Counter)",
        "numberOfBytes": "32",
        "value": "t_struct(Counter)6867_storage"
      },
      "t_mapping(t_address,t_uint256)": {
        "encoding": "mapping",
        "key": "t_address",
        "label": "mapping(address => uint256)",
        "numberOfBytes": "32",
        "value": "t_uint256"
      },
      "t_mapping(t_bytes32,t_struct(AddressSet)7576_storage)": {
        "encoding": "mapping",
        "key": "t_bytes32",
        "label": "mapping(bytes32 => struct EnumerableSet.AddressSet)",
        "numberOfBytes": "32",
        "value": "t_struct(AddressSet)7576_storage"
      },
      "t_mapping(t_bytes32,t_struct(Counter)6867_storage)": {
        "encoding": "mapping",
        "key": "t_bytes32",
        "label": "mapping(bytes32 => struct Counters.Counter)",
        "numberOfBytes": "32",
        "value": "t_struct(Counter)6867_storage"
      },
      "t_mapping(t_bytes32,t_struct(RoleData)4460_storage)": {
        "encoding": "mapping",
        "key": "t_bytes32",
        "label": "mapping(bytes32 => struct AccessControl.RoleData)",
        "numberOfBytes": "32",
        "value": "t_struct(RoleData)4460_storage"
      },
      "t_mapping(t_bytes32,t_uint256)": {
        "encoding": "mapping",
        "key": "t_bytes32",
        "label": "mapping(bytes32 => uint256)",
        "numberOfBytes": "32",
        "value": "t_uint256"
      },
      "t_struct(AddressSet)7576_storage": {
        "encoding": "inplace",
        "label": "struct EnumerableSet.AddressSet",
        "members": [
          {
            "astId": 7575,
            "contract": "contracts/factoryrecords.sol:FactoryRecords",
            "label": "_inner",
            "offset": 0,
            "slot": "0",
            "type": "t_struct(Set)7275_storage"
          }
        ],
        "numberOfBytes": "64"
      },
      "t_struct(ContractDepl)8397_storage": {
        "encoding": "inplace",
        "label": "struct FactoryRecords.ContractDepl",
        "members": [
          {
            "astId": 8390,
            "contract": "contracts/factoryrecords.sol:FactoryRecords",
            "label": "deplAddr",
            "offset": 0,
            "slot": "0",
            "type": "t_address"
          },
          {
            "astId": 8392,
            "contract": "contracts/factoryrecords.sol:FactoryRecords",
            "label": "ownerAddr",
            "offset": 0,
            "slot": "1",
            "type": "t_address"
          },
          {
            "astId": 8394,
            "contract": "contracts/factoryrecords.sol:FactoryRecords",
            "label": "deplName",
            "offset": 0,
            "slot": "2",
            "type": "t_bytes32"
          },
          {
            "astId": 8396,
            "contract": "contracts/factoryrecords.sol:FactoryRecords",
            "label": "version",
            "offset": 0,
            "slot": "3",
            "type": "t_uint256"
          }
        ],
        "numberOfBytes": "128"
      },
      "t_struct(Counter)6867_storage": {
        "encoding": "inplace",
        "label": "struct Counters.Counter",
        "members": [
          {
            "astId": 6866,
            "contract": "contracts/factoryrecords.sol:FactoryRecords",
            "label": "_value",
            "offset": 0,
            "slot": "0",
            "type": "t_uint256"
          }
        ],
        "numberOfBytes": "32"
      },
      "t_struct(RoleData)4460_storage": {
        "encoding": "inplace",
        "label": "struct AccessControl.RoleData",
        "members": [
          {
            "astId": 4457,
            "contract": "contracts/factoryrecords.sol:FactoryRecords",
            "label": "members",
            "offset": 0,
            "slot": "0",
            "type": "t_mapping(t_address,t_bool)"
          },
          {
            "astId": 4459,
            "contract": "contracts/factoryrecords.sol:FactoryRecords",
            "label": "adminRole",
            "offset": 0,
            "slot": "1",
            "type": "t_bytes32"
          }
        ],
        "numberOfBytes": "64"
      },
      "t_struct(Set)7275_storage": {
        "encoding": "inplace",
        "label": "struct EnumerableSet.Set",
        "members": [
          {
            "astId": 7270,
            "contract": "contracts/factoryrecords.sol:FactoryRecords",
            "label": "_values",
            "offset": 0,
            "slot": "0",
            "type": "t_array(t_bytes32)dyn_storage"
          },
          {
            "astId": 7274,
            "contract": "contracts/factoryrecords.sol:FactoryRecords",
            "label": "_indexes",
            "offset": 0,
            "slot": "1",
            "type": "t_mapping(t_bytes32,t_uint256)"
          }
        ],
        "numberOfBytes": "64"
      },
      "t_uint256": {
        "encoding": "inplace",
        "label": "uint256",
        "numberOfBytes": "32"
      }
    }
  }
}