{
  "address": "0xF1C3328e7321D8C1C17F0C466b4C34B5484BA0aa",
  "abi": [
    {
      "inputs": [],
      "stateMutability": "nonpayable",
      "type": "constructor"
    },
    {
      "anonymous": false,
      "inputs": [
        {
          "indexed": false,
          "internalType": "string",
          "name": "message",
          "type": "string"
        }
      ],
      "name": "Log",
      "type": "event"
    },
    {
      "anonymous": false,
      "inputs": [
        {
          "indexed": false,
          "internalType": "bytes",
          "name": "data",
          "type": "bytes"
        }
      ],
      "name": "LogBytes",
      "type": "event"
    },
    {
      "anonymous": false,
      "inputs": [
        {
          "indexed": true,
          "internalType": "bytes32",
          "name": "role",
          "type": "bytes32"
        },
        {
          "indexed": true,
          "internalType": "bytes32",
          "name": "previousAdminRole",
          "type": "bytes32"
        },
        {
          "indexed": true,
          "internalType": "bytes32",
          "name": "newAdminRole",
          "type": "bytes32"
        }
      ],
      "name": "RoleAdminChanged",
      "type": "event"
    },
    {
      "anonymous": false,
      "inputs": [
        {
          "indexed": true,
          "internalType": "bytes32",
          "name": "role",
          "type": "bytes32"
        },
        {
          "indexed": true,
          "internalType": "address",
          "name": "account",
          "type": "address"
        },
        {
          "indexed": true,
          "internalType": "address",
          "name": "sender",
          "type": "address"
        }
      ],
      "name": "RoleGranted",
      "type": "event"
    },
    {
      "anonymous": false,
      "inputs": [
        {
          "indexed": true,
          "internalType": "bytes32",
          "name": "role",
          "type": "bytes32"
        },
        {
          "indexed": true,
          "internalType": "address",
          "name": "account",
          "type": "address"
        },
        {
          "indexed": true,
          "internalType": "address",
          "name": "sender",
          "type": "address"
        }
      ],
      "name": "RoleRevoked",
      "type": "event"
    },
    {
      "inputs": [],
      "name": "DEFAULT_ADMIN_ROLE",
      "outputs": [
        {
          "internalType": "bytes32",
          "name": "",
          "type": "bytes32"
        }
      ],
      "stateMutability": "view",
      "type": "function"
    },
    {
      "inputs": [],
      "name": "FACTORY_ROLE",
      "outputs": [
        {
          "internalType": "bytes32",
          "name": "",
          "type": "bytes32"
        }
      ],
      "stateMutability": "view",
      "type": "function"
    },
    {
      "inputs": [],
      "name": "TokenFactoryLevel",
      "outputs": [
        {
          "internalType": "uint8",
          "name": "",
          "type": "uint8"
        }
      ],
      "stateMutability": "view",
      "type": "function"
    },
    {
      "inputs": [],
      "name": "accountRules",
      "outputs": [
        {
          "internalType": "contract IAccountRules",
          "name": "",
          "type": "address"
        }
      ],
      "stateMutability": "view",
      "type": "function"
    },
    {
      "inputs": [
        {
          "internalType": "string",
          "name": "name",
          "type": "string"
        },
        {
          "internalType": "string",
          "name": "symbol",
          "type": "string"
        }
      ],
      "name": "deployToken",
      "outputs": [],
      "stateMutability": "nonpayable",
      "type": "function"
    },
    {
      "inputs": [],
      "name": "factoryRecords",
      "outputs": [
        {
          "internalType": "contract IFactoryRecords",
          "name": "",
          "type": "address"
        }
      ],
      "stateMutability": "view",
      "type": "function"
    },
    {
      "inputs": [
        {
          "internalType": "bytes32",
          "name": "role",
          "type": "bytes32"
        }
      ],
      "name": "getRoleAdmin",
      "outputs": [
        {
          "internalType": "bytes32",
          "name": "",
          "type": "bytes32"
        }
      ],
      "stateMutability": "view",
      "type": "function"
    },
    {
      "inputs": [
        {
          "internalType": "bytes32",
          "name": "role",
          "type": "bytes32"
        },
        {
          "internalType": "uint256",
          "name": "index",
          "type": "uint256"
        }
      ],
      "name": "getRoleMember",
      "outputs": [
        {
          "internalType": "address",
          "name": "",
          "type": "address"
        }
      ],
      "stateMutability": "view",
      "type": "function"
    },
    {
      "inputs": [
        {
          "internalType": "bytes32",
          "name": "role",
          "type": "bytes32"
        }
      ],
      "name": "getRoleMemberCount",
      "outputs": [
        {
          "internalType": "uint256",
          "name": "",
          "type": "uint256"
        }
      ],
      "stateMutability": "view",
      "type": "function"
    },
    {
      "inputs": [
        {
          "internalType": "bytes32",
          "name": "role",
          "type": "bytes32"
        },
        {
          "internalType": "address",
          "name": "account",
          "type": "address"
        }
      ],
      "name": "grantRole",
      "outputs": [],
      "stateMutability": "nonpayable",
      "type": "function"
    },
    {
      "inputs": [
        {
          "internalType": "bytes32",
          "name": "role",
          "type": "bytes32"
        },
        {
          "internalType": "address",
          "name": "account",
          "type": "address"
        }
      ],
      "name": "hasRole",
      "outputs": [
        {
          "internalType": "bool",
          "name": "",
          "type": "bool"
        }
      ],
      "stateMutability": "view",
      "type": "function"
    },
    {
      "inputs": [
        {
          "internalType": "bytes32",
          "name": "role",
          "type": "bytes32"
        },
        {
          "internalType": "address",
          "name": "account",
          "type": "address"
        }
      ],
      "name": "renounceRole",
      "outputs": [],
      "stateMutability": "nonpayable",
      "type": "function"
    },
    {
      "inputs": [
        {
          "internalType": "bytes32",
          "name": "role",
          "type": "bytes32"
        },
        {
          "internalType": "address",
          "name": "account",
          "type": "address"
        }
      ],
      "name": "revokeRole",
      "outputs": [],
      "stateMutability": "nonpayable",
      "type": "function"
    },
    {
      "inputs": [
        {
          "internalType": "address",
          "name": "_accountRules",
          "type": "address"
        }
      ],
      "name": "setAccountRules",
      "outputs": [],
      "stateMutability": "nonpayable",
      "type": "function"
    },
    {
      "inputs": [
        {
          "internalType": "address",
          "name": "_factoryRecords",
          "type": "address"
        }
      ],
      "name": "setFactoryRecords",
      "outputs": [],
      "stateMutability": "nonpayable",
      "type": "function"
    },
    {
      "inputs": [
        {
          "internalType": "address",
          "name": "_subscriptionService",
          "type": "address"
        }
      ],
      "name": "setSubscriptionService",
      "outputs": [],
      "stateMutability": "nonpayable",
      "type": "function"
    },
    {
      "inputs": [],
      "name": "subscriptionService",
      "outputs": [
        {
          "internalType": "contract ISubscriptionHandler",
          "name": "",
          "type": "address"
        }
      ],
      "stateMutability": "view",
      "type": "function"
    },
    {
      "inputs": [
        {
          "internalType": "bytes4",
          "name": "interfaceId",
          "type": "bytes4"
        }
      ],
      "name": "supportsInterface",
      "outputs": [
        {
          "internalType": "bool",
          "name": "",
          "type": "bool"
        }
      ],
      "stateMutability": "view",
      "type": "function"
    }
  ],
  "transactionHash": "0x17572bfcd8edcb6dfe203f6f1cd7834c101cdc316c600d735530a7f0cbac3b66",
  "args": [],
  "solcInputHash": "22492bf2bddef8a64cedc5d6d8d5e9ff",
  "bytecode": "0x60806040526004805460ff60a01b191690553480156200001e57600080fd5b506200004b7fdfbefbf47cfe66b701d8cfdbce1de81c821590819cb07e71cb01b6602fb0ee273362000051565b620001b6565b6200006882826200009460201b620006281760201c565b60008281526001602090815260409091206200008f91839062000638620000a4821b17901c565b505050565b620000a08282620000c4565b5050565b6000620000bb836001600160a01b03841662000164565b90505b92915050565b6000828152602081815260408083206001600160a01b038516845290915290205460ff16620000a0576000828152602081815260408083206001600160a01b03851684529091529020805460ff19166001179055620001203390565b6001600160a01b0316816001600160a01b0316837f2f8788117e7eff1d82e926ec794901d17c78024a50270940304540a733656f0d60405160405180910390a45050565b6000818152600183016020526040812054620001ad57508154600181810184556000848152602080822090930184905584548482528286019093526040902091909155620000be565b506000620000be565b613e5580620001c66000396000f3fe60806040523480156200001157600080fd5b50600436106200012d5760003560e01c80637a75611111620000af578063b3f74cac116200007a578063b3f74cac14620002ab578063ca15c87314620002bf578063d547741f14620002d6578063dd514e6014620002ed578063eef4b8c9146200030157600080fd5b80637a756111146200024c5780639010d07c146200027457806391d14854146200028b578063a217fddf14620002a257600080fd5b8063248a9ca311620000fc578063248a9ca314620001b45780632f2ff15d14620001da57806336568abe14620001f15780634260b3741462000208578063685ccb2e146200021f57600080fd5b806301ffc9a7146200013257806304a0fb17146200015e578063059a24fd14620001845780631d12b938146200019d575b600080fd5b620001496200014336600462001378565b62000318565b60405190151581526020015b60405180910390f35b6200017560008051602062003e0083398151915281565b60405190815260200162000155565b6200019b62000195366004620012b7565b62000346565b005b6200019b620001ae366004620013a2565b62000385565b62000175620001c5366004620012f6565b60009081526020819052604090206001015490565b6200019b620001eb36600462001328565b620004ea565b6200019b6200020236600462001328565b62000515565b6200019b62000219366004620012b7565b6200053b565b60035462000233906001600160a01b031681565b6040516001600160a01b03909116815260200162000155565b6004546200026190600160a01b900460ff1681565b60405160ff909116815260200162000155565b620002336200028536600462001356565b6200057a565b620001496200029c36600462001328565b6200059b565b62000175600081565b60045462000233906001600160a01b031681565b62000175620002d0366004620012f6565b620005c4565b6200019b620002e736600462001328565b620005dd565b60025462000233906001600160a01b031681565b6200019b62000312366004620012b7565b620005e9565b60006001600160e01b03198216635a05180f60e01b148062000340575062000340826200064f565b92915050565b60008051602062003e0083398151915262000362813362000686565b50600280546001600160a01b0319166001600160a01b0392909216919091179055565b60408051600080825260208201909252339084908490604051620003a9906200121b565b620003b89493929190620014b1565b604051809103906000f080158015620003d5573d6000803e3d6000fd5b5090506000816001600160a01b031663f5f5ba726040518163ffffffff1660e01b815260040160206040518083038186803b1580156200041457600080fd5b505afa15801562000429573d6000803e3d6000fd5b505050506040513d601f19601f820116820180604052508101906200044f91906200130f565b90506000826001600160a01b0316638aa104356040518163ffffffff1660e01b815260040160206040518083038186803b1580156200048d57600080fd5b505afa158015620004a2573d6000803e3d6000fd5b505050506040513d601f19601f82011682018060405250810190620004c891906200130f565b9050620004d883338484620006fe565b620004e38362000994565b5050505050565b620004f6828262000b87565b600082815260016020526040902062000510908262000638565b505050565b62000521828262000bb1565b600082815260016020526040902062000510908262000c2f565b60008051602062003e0083398151915262000557813362000686565b50600480546001600160a01b0319166001600160a01b0392909216919091179055565b600082815260016020526040812062000594908362000c46565b9392505050565b6000918252602082815260408084206001600160a01b0393909316845291905290205460ff1690565b6000818152600160205260408120620003409062000c54565b62000521828262000c5f565b60008051602062003e0083398151915262000605813362000686565b50600380546001600160a01b0319166001600160a01b0392909216919091179055565b62000634828262000c89565b5050565b600062000594836001600160a01b03841662000d11565b60006001600160e01b03198216637965db0b60e01b14806200034057506301ffc9a760e01b6001600160e01b031983161462000340565b6200069282826200059b565b6200063457620006ad816001600160a01b0316601462000d63565b620006ba83602062000d63565b604051602001620006cd92919062001438565b60408051601f198184030181529082905262461bcd60e51b8252620006f59160040162001532565b60405180910390fd5b60045460ff600160a01b820416906001600160a01b0316620007635760405162461bcd60e51b815260206004820152601e60248201527f537562736372697074696f6e2073657276696365206e6f7420736574202100006044820152606401620006f5565b6200076e8162000f59565b620007bc5760405162461bcd60e51b815260206004820152601e60248201527f537562736372697074696f6e206e6f742076616c69642c20736f7272792100006044820152606401620006f5565b60035460405163bdb6f31760e01b81526001600160a01b038781166004830152868116602483015260448201869052606482018590529091169063bdb6f31790608401602060405180830381600087803b1580156200081a57600080fd5b505af19250505080156200084d575060408051601f3d908101601f191682019092526200084a91810190620012d4565b60015b62000915576200085c62001647565b806308c379a01415620008b057506200087462001660565b80620008815750620008b2565b60008051602062003de083398151915281604051620008a1919062001532565b60405180910390a150620004e3565b505b3d808015620008de576040519150601f19603f3d011682016040523d82523d6000602084013e620008e3565b606091505b507f532fd6ea96cfb78bb46e09279a26828b8b493de1a2b8b1ee1face527978a15a581604051620008a1919062001532565b80156200098c5760008051602062003de083398151915260405162000983906020808252602f908201527f436f6e7472616374204164646564207375636365737366756c6c7920746f206660408201526e6163746f72795265636f726473202160881b606082015260800190565b60405180910390a15b505050505050565b6002546001600160a01b0316620009e75760405162461bcd60e51b81526020600482015260166024820152754163636f756e7452756c6573206e6f7420736574202160501b6044820152606401620006f5565b60025460405163744d870f60e11b81526001600160a01b0383811660048301529091169063e89b0e1e90602401602060405180830381600087803b15801562000a2f57600080fd5b505af192505050801562000a62575060408051601f3d908101601f1916820190925262000a5f91810190620012d4565b60015b62000b275762000a7162001647565b806308c379a0141562000ac2575062000a8962001660565b8062000a96575062000ac4565b60008051602062003de08339815191528160405162000ab6919062001532565b60405180910390a15050565b505b3d80801562000af0576040519150601f19603f3d011682016040523d82523d6000602084013e62000af5565b606091505b507f532fd6ea96cfb78bb46e09279a26828b8b493de1a2b8b1ee1face527978a15a58160405162000ab6919062001532565b8015620006345760008051602062003de083398151915260405162000ab69060208082526021908201527f4163636f756e7452756c6573204164646564207375636365737366756c6c79206040820152602160f81b606082015260800190565b60008281526020819052604090206001015462000ba5813362000686565b62000510838362000c89565b6001600160a01b038116331462000c235760405162461bcd60e51b815260206004820152602f60248201527f416363657373436f6e74726f6c3a2063616e206f6e6c792072656e6f756e636560448201526e103937b632b9903337b91039b2b63360891b6064820152608401620006f5565b62000634828262001052565b600062000594836001600160a01b038416620010ba565b6000620005948383620011e2565b600062000340825490565b60008281526020819052604090206001015462000c7d813362000686565b62000510838362001052565b62000c9582826200059b565b62000634576000828152602081815260408083206001600160a01b03851684529091529020805460ff1916600117905562000ccd3390565b6001600160a01b0316816001600160a01b0316837f2f8788117e7eff1d82e926ec794901d17c78024a50270940304540a733656f0d60405160405180910390a45050565b600081815260018301602052604081205462000d5a5750815460018181018455600084815260208082209093018490558454848252828601909352604090209190915562000340565b50600062000340565b6060600062000d7483600262001562565b62000d8190600262001547565b67ffffffffffffffff81111562000da857634e487b7160e01b600052604160045260246000fd5b6040519080825280601f01601f19166020018201604052801562000dd3576020820181803683370190505b509050600360fc1b8160008151811062000dfd57634e487b7160e01b600052603260045260246000fd5b60200101906001600160f81b031916908160001a905350600f60fb1b8160018151811062000e3b57634e487b7160e01b600052603260045260246000fd5b60200101906001600160f81b031916908160001a905350600062000e6184600262001562565b62000e6e90600162001547565b90505b600181111562000f08576f181899199a1a9b1b9c1cb0b131b232b360811b85600f166010811062000eb257634e487b7160e01b600052603260045260246000fd5b1a60f81b82828151811062000ed757634e487b7160e01b600052603260045260246000fd5b60200101906001600160f81b031916908160001a90535060049490941c9362000f0081620015d1565b905062000e71565b508315620005945760405162461bcd60e51b815260206004820181905260248201527f537472696e67733a20686578206c656e67746820696e73756666696369656e746044820152606401620006f5565b6003546000906001600160a01b031662000fb65760405162461bcd60e51b815260206004820152601960248201527f466163746f7279207265636f726473206e6f74207365742021000000000000006044820152606401620006f5565b60ff82161562001049576004805460405163338ddb6360e11b8152339281019290925260ff841660248301526001600160a01b03169063671bb6c69060440160206040518083038186803b1580156200100e57600080fd5b505afa15801562001023573d6000803e3d6000fd5b505050506040513d601f19601f82011682018060405250810190620003409190620012d4565b5060015b919050565b6200105e82826200059b565b1562000634576000828152602081815260408083206001600160a01b0385168085529252808320805460ff1916905551339285917ff6391f5c32d9c69d2a47ea670b442974b53935d1edc7fd64eb21e047a839171b9190a45050565b60008181526001830160205260408120548015620011d7576000620010e160018362001584565b8554909150600090620010f79060019062001584565b90508181146200117b5760008660000182815481106200112757634e487b7160e01b600052603260045260246000fd5b90600052602060002001549050808760000184815481106200115957634e487b7160e01b600052603260045260246000fd5b6000918252602080832090910192909255918252600188019052604090208390555b85548690806200119b57634e487b7160e01b600052603160045260246000fd5b60019003818190600052602060002001600090559055856001016000868152602001908152602001600020600090556001935050505062000340565b600091505062000340565b60008260000182815481106200120857634e487b7160e01b600052603260045260246000fd5b9060005260206000200154905092915050565b6126ef80620016f183390190565b80356001600160a01b03811681146200104d57600080fd5b600082601f83011262001252578081fd5b813567ffffffffffffffff8111156200126f576200126f62001631565b60405162001288601f8301601f191660200182620015eb565b8181528460208386010111156200129d578283fd5b816020850160208301379081016020019190915292915050565b600060208284031215620012c9578081fd5b620005948262001229565b600060208284031215620012e6578081fd5b8151801515811462000594578182fd5b60006020828403121562001308578081fd5b5035919050565b60006020828403121562001321578081fd5b5051919050565b600080604083850312156200133b578081fd5b823591506200134d6020840162001229565b90509250929050565b6000806040838503121562001369578182fd5b50508035926020909101359150565b6000602082840312156200138a578081fd5b81356001600160e01b03198116811462000594578182fd5b60008060408385031215620013b5578182fd5b823567ffffffffffffffff80821115620013cd578384fd5b620013db8683870162001241565b93506020850135915080821115620013f1578283fd5b50620014008582860162001241565b9150509250929050565b60008151808452620014248160208601602086016200159e565b601f01601f19169290920160200192915050565b7f416363657373436f6e74726f6c3a206163636f756e7420000000000000000000815260008351620014728160178501602088016200159e565b7001034b99036b4b9b9b4b733903937b6329607d1b6017918401918201528351620014a58160288401602088016200159e565b01602801949350505050565b600060018060a01b0380871683526020608081850152620014d660808501886200140a565b8481036040860152620014ea81886200140a565b85810360608701528651808252838801925090830190855b818110156200152257835186168352928401929184019160010162001502565b50909a9950505050505050505050565b6020815260006200059460208301846200140a565b600082198211156200155d576200155d6200161b565b500190565b60008160001904831182151516156200157f576200157f6200161b565b500290565b6000828210156200159957620015996200161b565b500390565b60005b83811015620015bb578181015183820152602001620015a1565b83811115620015cb576000848401525b50505050565b600081620015e357620015e36200161b565b506000190190565b601f8201601f1916810167ffffffffffffffff8111828210171562001614576200161462001631565b6040525050565b634e487b7160e01b600052601160045260246000fd5b634e487b7160e01b600052604160045260246000fd5b600060033d11156200165d57600481823e5160e01c5b90565b600060443d10156200166f5790565b6040516003193d81016004833e81513d67ffffffffffffffff8160248401118184111715620016a057505050505090565b8285019150815181811115620016b95750505050505090565b843d8701016020828501011115620016d45750505050505090565b620016e560208286010187620015eb565b50909594505050505056fe60806040523480156200001157600080fd5b50604051620026ef380380620026ef833981016040819052620000349162000467565b82828282600290805190602001906200004f929190620002da565b50815162000065906003906020850190620002da565b5080516200007b90600490602084019062000369565b5060005b8151811015620000f757600160056000848481518110620000b057634e487b7160e01b600052603260045260246000fd5b6020908102919091018101516001600160a01b03168252810191909152604001600020805460ff191691151591909117905580620000ee81620006cc565b9150506200007f565b506040516329965a1d60e01b815230600482018190527fac7fbab5f54a3ca8194167523c6753bfeb96a445279294b6125b68cce217705460248301526044820152731820a4b7618bde71dce8cdc73aab6c95905fad24906329965a1d90606401600060405180830381600087803b1580156200017257600080fd5b505af115801562000187573d6000803e3d6000fd5b50506040516329965a1d60e01b815230600482018190527faea199e31a596269b42cdafd93407f14436db6e4cad65417994c2eb37381e05a60248301526044820152731820a4b7618bde71dce8cdc73aab6c95905fad2492506329965a1d9150606401600060405180830381600087803b1580156200020557600080fd5b505af11580156200021a573d6000803e3d6000fd5b5050600c80546001600160a01b03808c166001600160a01b031992831681178455600a80546001810182557fc65a7bb8d6351c1cf70c95a316cc6a92839c986682d98bc35f958f4883f9d2a8018054909416821790935591549254166000908152600b6020526040908190209290925590519095503094507ff1c403b45acd8834bbcb0da8efcdbc714e7315f93f650a2cd8efcdb2b6ab2e639350620002c8925088915087908790620005b2565b60405180910390a3505050506200070a565b828054620002e8906200068f565b90600052602060002090601f0160209004810192826200030c576000855562000357565b82601f106200032757805160ff191683800117855562000357565b8280016001018555821562000357579182015b82811115620003575782518255916020019190600101906200033a565b5062000365929150620003c1565b5090565b82805482825590600052602060002090810192821562000357579160200282015b828111156200035757825182546001600160a01b0319166001600160a01b039091161782556020909201916001909101906200038a565b5b80821115620003655760008155600101620003c2565b80516001600160a01b0381168114620003f057600080fd5b919050565b600082601f83011262000406578081fd5b81516001600160401b03811115620004225762000422620006f4565b62000437601f8201601f191660200162000629565b8181528460208386010111156200044c578283fd5b6200045f8260208301602087016200065c565b949350505050565b600080600080608085870312156200047d578384fd5b6200048885620003d8565b602086810151919550906001600160401b0380821115620004a7578586fd5b620004b589838a01620003f5565b95506040880151915080821115620004cb578485fd5b620004d989838a01620003f5565b94506060880151915080821115620004ef578384fd5b818801915088601f83011262000503578384fd5b815181811115620005185762000518620006f4565b8060051b91506200052b84830162000629565b8181528481019084860184860187018d101562000546578788fd5b8795505b8386101562000573576200055e81620003d8565b8352600195909501949186019186016200054a565b50989b979a50959850505050505050565b600081518084526200059e8160208601602086016200065c565b601f01601f19169290920160200192915050565b606081526000620005c7606083018662000584565b602083820381850152620005dc828762000584565b84810360408601528551808252828701935090820190845b818110156200061b5784516001600160a01b031683529383019391830191600101620005f4565b509098975050505050505050565b604051601f8201601f191681016001600160401b0381118282101715620006545762000654620006f4565b604052919050565b60005b83811015620006795781810151838201526020016200065f565b8381111562000689576000848401525b50505050565b600181811c90821680620006a457607f821691505b60208210811415620006c657634e487b7160e01b600052602260045260246000fd5b50919050565b6000600019821415620006ed57634e487b7160e01b81526011600452602481fd5b5060010190565b634e487b7160e01b600052604160045260246000fd5b611fd5806200071a6000396000f3fe608060405234801561001057600080fd5b50600436106101e55760003560e01c8063959b8c3f1161010f578063d95b6371116100a2578063f5f5ba7211610071578063f5f5ba7214610430578063fad8b32a14610456578063fc673c4f14610469578063fe9d93031461047c57600080fd5b8063d95b6371146103c4578063dc9a1535146103d7578063dd62ed3e146103e4578063e424a0d51461041d57600080fd5b8063a0712d68116100de578063a0712d6814610383578063a52ba4e814610396578063a9059cbb146103a9578063b8522043146103bc57600080fd5b8063959b8c3f1461034257806395d89b4114610355578063985751881461035d5780639bd9bbc61461037057600080fd5b8063421b2d8b1161018757806362ad1b831161015657806362ad1b83146102d357806370a08231146102e65780638aa104351461030f5780638da5cb5b1461031757600080fd5b8063421b2d8b1461027d578063556f0dc7146102925780635cbcec4e14610299578063614d08f8146102ac57600080fd5b806318160ddd116101c357806318160ddd1461024057806323b872dd14610252578063313ce5671461026557806338b903331461027457600080fd5b806306e48538146101ea57806306fdde0314610208578063095ea7b31461021d575b600080fd5b6101f261048f565b6040516101ff9190611d98565b60405180910390f35b6102106104f1565b6040516101ff9190611de5565b61023061022b366004611b77565b61057a565b60405190151581526020016101ff565b6001545b6040519081526020016101ff565b610230610260366004611aa7565b610592565b604051601281526020016101ff565b6102446103e881565b61029061028b366004611a37565b61075b565b005b6001610244565b6102906102a7366004611c76565b61083b565b6102447ffcfcd73806a3d50a21e3624e820ff5a4aec7331430c180d0b068ebc34cc0546981565b6102906102e1366004611ae7565b6108ae565b6102446102f4366004611a37565b6001600160a01b031660009081526020819052604090205490565b6103e8610244565b600c5461032a906001600160a01b031681565b6040516001600160a01b0390911681526020016101ff565b610290610350366004611a37565b6108ea565b610210610a08565b61029061036b366004611a37565b610a17565b61029061037e366004611ba2565b610bbd565b610290610391366004611c96565b610be0565b6102306103a4366004611a37565b610c34565b6102306103b7366004611b77565b610c70565b6101f2610d23565b6102306103d2366004611a6f565b610d83565b6009546102309060ff1681565b6102446103f2366004611a6f565b6001600160a01b03918216600090815260086020908152604080832093909416825291909152205490565b61032a61042b366004611c96565b610e25565b7ffcfcd73806a3d50a21e3624e820ff5a4aec7331430c180d0b068ebc34cc05469610244565b610290610464366004611a37565b610e4f565b610290610477366004611bf9565b610f6b565b61029061048a366004611cae565b610fa3565b606060048054806020026020016040519081016040528092919081815260200182805480156104e757602002820191906000526020600020905b81546001600160a01b031681526001909101906020018083116104c9575b5050505050905090565b60606002805461050090611f23565b80601f016020809104026020016040519081016040528092919081815260200182805461052c90611f23565b80156104e75780601f1061054e576101008083540402835291602001916104e7565b820191906000526020600020905b81548152906001019060200180831161055c57509395945050505050565b600033610588818585610fbe565b5060019392505050565b60006001600160a01b0383166105c35760405162461bcd60e51b81526004016105ba90611e2f565b60405180910390fd5b6001600160a01b0384166106285760405162461bcd60e51b815260206004820152602660248201527f4552433737373a207472616e736665722066726f6d20746865207a65726f206160448201526564647265737360d01b60648201526084016105ba565b60003390506106598186868660405180602001604052806000815250604051806020016040528060008152506110e5565b61068581868686604051806020016040528060008152506040518060200160405280600081525061121c565b6001600160a01b038086166000908152600860209081526040808320938516835292905220548381101561070d5760405162461bcd60e51b815260206004820152602960248201527f4552433737373a207472616e7366657220616d6f756e74206578636565647320604482015268616c6c6f77616e636560b81b60648201526084016105ba565b610721868361071c8785611f0c565b610fbe565b61074f828787876040518060200160405280600081525060405180602001604052806000815250600061138e565b50600195945050505050565b600c546001600160a01b031633146107855760405162461bcd60e51b81526004016105ba90611df8565b6001600160a01b0381166000908152600b602052604090205461083857600a80546001810182557fc65a7bb8d6351c1cf70c95a316cc6a92839c986682d98bc35f958f4883f9d2a80180546001600160a01b0319166001600160a01b03841690811790915590546000828152600b6020908152604091829020839055905182815291929130917ffa5accd15882920e4192e2ef08fdbf6fec3cb87dcbbd5c4a125991ba29ff6d75910160405180910390a3505b50565b600c546001600160a01b031633146108655760405162461bcd60e51b81526004016105ba90611df8565b6009805460ff191682151590811790915560405190815230907fd374566ee7f9ff309985fe4bad42c3e583507bf56e47d7fce62f98fa0ae792109060200160405180910390a250565b6108b83386610d83565b6108d45760405162461bcd60e51b81526004016105ba90611e73565b6108e385858585856001611562565b5050505050565b336001600160a01b038216141561094f5760405162461bcd60e51b8152602060048201526024808201527f4552433737373a20617574686f72697a696e672073656c66206173206f70657260448201526330ba37b960e11b60648201526084016105ba565b6001600160a01b03811660009081526005602052604090205460ff16156109a0573360009081526007602090815260408083206001600160a01b03851684529091529020805460ff191690556109cf565b3360009081526006602090815260408083206001600160a01b03851684529091529020805460ff191660011790555b60405133906001600160a01b038316907ff4caeb2d6ca8932a215a353d0703c326ec2d81fc68170f320eb2ab49e9df61f990600090a350565b60606003805461050090611f23565b600c546001600160a01b03163314610a415760405162461bcd60e51b81526004016105ba90611df8565b6001600160a01b038082166000818152600b6020526040902054600c5490921614801590610a6f5750600081115b8015610a7d5750600a548111155b15610bb957600a548114610b3057600a805460009190610a9f90600190611f0c565b81548110610abd57634e487b7160e01b600052603260045260246000fd5b6000918252602090912001546001600160a01b0316905080600a610ae2600185611f0c565b81548110610b0057634e487b7160e01b600052603260045260246000fd5b9060005260206000200160006101000a8154816001600160a01b0302191690836001600160a01b03160217905550505b600a805480610b4f57634e487b7160e01b600052603160045260246000fd5b60008281526020808220830160001990810180546001600160a01b03191690559092019092556001600160a01b038416808352600b909152604080832083905551909130917f644f0aaefc0fbcf4d31428d6c50a28df97c755781adcc2da35311c1a8504e7289190a35b5050565b610bdb33848484604051806020016040528060008152506001611562565b505050565b600c546001600160a01b03163314610c0a5760405162461bcd60e51b81526004016105ba90611df8565b61083833826040518060200160405280600081525060405180602001604052806000815250611645565b600954600090819060ff1680610c6157506001600160a01b0383166000908152600b602052604090205415155b15610c6a575060015b92915050565b60006001600160a01b038316610c985760405162461bcd60e51b81526004016105ba90611e2f565b6000339050610cc98182868660405180602001604052806000815250604051806020016040528060008152506110e5565b610cf581828686604051806020016040528060008152506040518060200160405280600081525061121c565b610588818286866040518060200160405280600081525060405180602001604052806000815250600061138e565b6060600a8054806020026020016040519081016040528092919081815260200182805480156104e7576020028201919060005260206000209081546001600160a01b031681526001909101906020018083116104c9575050505050905090565b6000816001600160a01b0316836001600160a01b03161480610dee57506001600160a01b03831660009081526005602052604090205460ff168015610dee57506001600160a01b0380831660009081526007602090815260408083209387168352929052205460ff16155b80610e1e57506001600160a01b0380831660009081526006602090815260408083209387168352929052205460ff165b9392505050565b600a8181548110610e3557600080fd5b6000918252602090912001546001600160a01b0316905081565b6001600160a01b038116331415610eb25760405162461bcd60e51b815260206004820152602160248201527f4552433737373a207265766f6b696e672073656c66206173206f70657261746f6044820152603960f91b60648201526084016105ba565b6001600160a01b03811660009081526005602052604090205460ff1615610f06573360009081526007602090815260408083206001600160a01b03851684529091529020805460ff19166001179055610f32565b3360009081526006602090815260408083206001600160a01b03851684529091529020805460ff191690555b60405133906001600160a01b038316907f50546e66e5f44d728365dc3908c63bc5cfeeab470722c1677e3073a6ac294aa190600090a350565b610f753385610d83565b610f915760405162461bcd60e51b81526004016105ba90611e73565b610f9d84848484611653565b50505050565b610bb933838360405180602001604052806000815250611653565b6001600160a01b0383166110225760405162461bcd60e51b815260206004820152602560248201527f4552433737373a20617070726f76652066726f6d20746865207a65726f206164604482015264647265737360d81b60648201526084016105ba565b6001600160a01b0382166110845760405162461bcd60e51b815260206004820152602360248201527f4552433737373a20617070726f766520746f20746865207a65726f206164647260448201526265737360e81b60648201526084016105ba565b6001600160a01b0383811660008181526008602090815260408083209487168084529482529182902085905590518481527f8c5be1e5ebec7d5bd14f71427d1e84f3dd0314c0f7b2291e5b200ac8c7c3b925910160405180910390a3505050565b60405163555ddc6560e11b81526001600160a01b03861660048201527f29ddb589b1fb5fc7cf394961c1adf5f8c6454761adf795e67fe149f658abe8956024820152600090731820a4b7618bde71dce8cdc73aab6c95905fad249063aabbb8ca9060440160206040518083038186803b15801561116157600080fd5b505afa158015611175573d6000803e3d6000fd5b505050506040513d601f19601f820116820180604052508101906111999190611a53565b90506001600160a01b0381161561121357604051633ad5cbc160e11b81526001600160a01b038216906375ab9782906111e0908a908a908a908a908a908a90600401611d3e565b600060405180830381600087803b1580156111fa57600080fd5b505af115801561120e573d6000803e3d6000fd5b505050505b50505050505050565b61122886868686611815565b6001600160a01b038516600090815260208190526040902054838110156112a15760405162461bcd60e51b815260206004820152602760248201527f4552433737373a207472616e7366657220616d6f756e7420657863656564732060448201526662616c616e636560c81b60648201526084016105ba565b6001600160a01b038087166000908152602081905260408082208785039055918716815290812080548692906112d8908490611ef4565b92505081905550846001600160a01b0316866001600160a01b0316886001600160a01b03167f06b541ddaa720db2b10a4d0cdac39b8d360425fc073085fac19bc8261467798787878760405161133093929190611ebf565b60405180910390a4846001600160a01b0316866001600160a01b03167fddf252ad1be2c89b69c2b068fc378daa952ba7f163c4a11628f55a4df523b3ef8660405161137d91815260200190565b60405180910390a350505050505050565b60405163555ddc6560e11b81526001600160a01b03861660048201527fb281fc8c12954d22544db45de3159a39272895b169a852b314f9cc762e44c53b6024820152600090731820a4b7618bde71dce8cdc73aab6c95905fad249063aabbb8ca9060440160206040518083038186803b15801561140a57600080fd5b505afa15801561141e573d6000803e3d6000fd5b505050506040513d601f19601f820116820180604052508101906114429190611a53565b90506001600160a01b038116156114be576040516223de2960e01b81526001600160a01b038216906223de2990611487908b908b908b908b908b908b90600401611d3e565b600060405180830381600087803b1580156114a157600080fd5b505af11580156114b5573d6000803e3d6000fd5b50505050611558565b8115611558576001600160a01b0386163b156115585760405162461bcd60e51b815260206004820152604d60248201527f4552433737373a20746f6b656e20726563697069656e7420636f6e747261637460448201527f20686173206e6f20696d706c656d656e74657220666f7220455243373737546f60648201526c1ad95b9cd49958da5c1a595b9d609a1b608482015260a4016105ba565b5050505050505050565b6001600160a01b0386166115c35760405162461bcd60e51b815260206004820152602260248201527f4552433737373a2073656e642066726f6d20746865207a65726f206164647265604482015261737360f01b60648201526084016105ba565b6001600160a01b0385166116195760405162461bcd60e51b815260206004820181905260248201527f4552433737373a2073656e6420746f20746865207a65726f206164647265737360448201526064016105ba565b336116288188888888886110e5565b61163681888888888861121c565b6112138188888888888861138e565b610f9d84848484600161186a565b6001600160a01b0384166116b45760405162461bcd60e51b815260206004820152602260248201527f4552433737373a206275726e2066726f6d20746865207a65726f206164647265604482015261737360f01b60648201526084016105ba565b336116c4818660008787876110e5565b6116d18186600087611815565b6001600160a01b038516600090815260208190526040902054848110156117465760405162461bcd60e51b815260206004820152602360248201527f4552433737373a206275726e20616d6f756e7420657863656564732062616c616044820152626e636560e81b60648201526084016105ba565b6001600160a01b0386166000908152602081905260408120868303905560018054879290611775908490611f0c565b92505081905550856001600160a01b0316826001600160a01b03167fa78a9be3a7b862d26933ad85fb11d80ef66b8f972d7cbba06621d583943a40988787876040516117c393929190611ebf565b60405180910390a36040518581526000906001600160a01b038816907fddf252ad1be2c89b69c2b068fc378daa952ba7f163c4a11628f55a4df523b3ef906020015b60405180910390a3505050505050565b61181e33610c34565b610f9d5760405162461bcd60e51b815260206004820152601f60248201527f536f7272792c207468697320636f6e747261637420697320707269766174650060448201526064016105ba565b6001600160a01b0385166118c05760405162461bcd60e51b815260206004820181905260248201527f4552433737373a206d696e7420746f20746865207a65726f206164647265737360448201526064016105ba565b336118ce8160008888611815565b84600160008282546118e09190611ef4565b90915550506001600160a01b0386166000908152602081905260408120805487929061190d908490611ef4565b909155506119239050816000888888888861138e565b856001600160a01b0316816001600160a01b03167f2fe5be0146f74c5bce36c0b80911af6c7d86ff27e89d5cfa61fc681327954e5d87878760405161196a93929190611ebf565b60405180910390a36040518581526001600160a01b038716906000907fddf252ad1be2c89b69c2b068fc378daa952ba7f163c4a11628f55a4df523b3ef90602001611805565b600082601f8301126119c0578081fd5b813567ffffffffffffffff808211156119db576119db611f74565b604051601f8301601f19908116603f01168101908282118183101715611a0357611a03611f74565b81604052838152866020858801011115611a1b578485fd5b8360208701602083013792830160200193909352509392505050565b600060208284031215611a48578081fd5b8135610e1e81611f8a565b600060208284031215611a64578081fd5b8151610e1e81611f8a565b60008060408385031215611a81578081fd5b8235611a8c81611f8a565b91506020830135611a9c81611f8a565b809150509250929050565b600080600060608486031215611abb578081fd5b8335611ac681611f8a565b92506020840135611ad681611f8a565b929592945050506040919091013590565b600080600080600060a08688031215611afe578081fd5b8535611b0981611f8a565b94506020860135611b1981611f8a565b935060408601359250606086013567ffffffffffffffff80821115611b3c578283fd5b611b4889838a016119b0565b93506080880135915080821115611b5d578283fd5b50611b6a888289016119b0565b9150509295509295909350565b60008060408385031215611b89578182fd5b8235611b9481611f8a565b946020939093013593505050565b600080600060608486031215611bb6578283fd5b8335611bc181611f8a565b925060208401359150604084013567ffffffffffffffff811115611be3578182fd5b611bef868287016119b0565b9150509250925092565b60008060008060808587031215611c0e578384fd5b8435611c1981611f8a565b935060208501359250604085013567ffffffffffffffff80821115611c3c578384fd5b611c48888389016119b0565b93506060870135915080821115611c5d578283fd5b50611c6a878288016119b0565b91505092959194509250565b600060208284031215611c87578081fd5b81358015158114610e1e578182fd5b600060208284031215611ca7578081fd5b5035919050565b60008060408385031215611cc0578182fd5b82359150602083013567ffffffffffffffff811115611cdd578182fd5b611ce9858286016119b0565b9150509250929050565b60008151808452815b81811015611d1857602081850181015186830182015201611cfc565b81811115611d295782602083870101525b50601f01601f19169290920160200192915050565b6001600160a01b0387811682528681166020830152851660408201526060810184905260c060808201819052600090611d7990830185611cf3565b82810360a0840152611d8b8185611cf3565b9998505050505050505050565b6020808252825182820181905260009190848201906040850190845b81811015611dd95783516001600160a01b031683529284019291840191600101611db4565b50909695505050505050565b602081526000610e1e6020830184611cf3565b6020808252601f908201527f536f7272792c20616374696f6e206e6f7420616c6c6f77206279207573657200604082015260600190565b60208082526024908201527f4552433737373a207472616e7366657220746f20746865207a65726f206164646040820152637265737360e01b606082015260800190565b6020808252602c908201527f4552433737373a2063616c6c6572206973206e6f7420616e206f70657261746f60408201526b39103337b9103437b63232b960a11b606082015260800190565b838152606060208201526000611ed86060830185611cf3565b8281036040840152611eea8185611cf3565b9695505050505050565b60008219821115611f0757611f07611f5e565b500190565b600082821015611f1e57611f1e611f5e565b500390565b600181811c90821680611f3757607f821691505b60208210811415611f5857634e487b7160e01b600052602260045260246000fd5b50919050565b634e487b7160e01b600052601160045260246000fd5b634e487b7160e01b600052604160045260246000fd5b6001600160a01b038116811461083857600080fdfea2646970667358221220802949a04aba80ee339dd1dce57cd303aab4401e4b98d33a46391c239f0319bf64736f6c63430008040033cf34ef537ac33ee1ac626ca1587a0a7e8e51561e5514f8cb36afa1c5102b3babdfbefbf47cfe66b701d8cfdbce1de81c821590819cb07e71cb01b6602fb0ee27a2646970667358221220720712c28da44a5683089b346ed29018e01e96314194a8caf6fccd95e618baf164736f6c63430008040033",
  "devdoc": {
    "kind": "dev",
    "methods": {
      "getRoleAdmin(bytes32)": {
        "details": "Returns the admin role that controls `role`. See {grantRole} and {revokeRole}. To change a role's admin, use {_setRoleAdmin}."
      },
      "getRoleMember(bytes32,uint256)": {
        "details": "Returns one of the accounts that have `role`. `index` must be a value between 0 and {getRoleMemberCount}, non-inclusive. Role bearers are not sorted in any particular way, and their ordering may change at any point. WARNING: When using {getRoleMember} and {getRoleMemberCount}, make sure you perform all queries on the same block. See the following https://forum.openzeppelin.com/t/iterating-over-elements-on-enumerableset-in-openzeppelin-contracts/2296[forum post] for more information."
      },
      "getRoleMemberCount(bytes32)": {
        "details": "Returns the number of accounts that have `role`. Can be used together with {getRoleMember} to enumerate all bearers of a role."
      },
      "grantRole(bytes32,address)": {
        "details": "Overload {grantRole} to track enumerable memberships"
      },
      "hasRole(bytes32,address)": {
        "details": "Returns `true` if `account` has been granted `role`."
      },
      "renounceRole(bytes32,address)": {
        "details": "Overload {renounceRole} to track enumerable memberships"
      },
      "revokeRole(bytes32,address)": {
        "details": "Overload {revokeRole} to track enumerable memberships"
      },
      "supportsInterface(bytes4)": {
        "details": "See {IERC165-supportsInterface}."
      }
    },
    "version": 1
  },
  "userdoc": {
    "kind": "user",
    "methods": {},
    "version": 1
  },
  "storageLayout": {
    "storage": [
      {
        "astId": 4465,
        "contract": "contracts/mainfactory.sol:MainFactory",
        "label": "_roles",
        "offset": 0,
        "slot": "0",
        "type": "t_mapping(t_bytes32,t_struct(RoleData)4460_storage)"
      },
      {
        "astId": 4766,
        "contract": "contracts/mainfactory.sol:MainFactory",
        "label": "_roleMembers",
        "offset": 0,
        "slot": "1",
        "type": "t_mapping(t_bytes32,t_struct(AddressSet)7576_storage)"
      },
      {
        "astId": 8667,
        "contract": "contracts/mainfactory.sol:MainFactory",
        "label": "accountRules",
        "offset": 0,
        "slot": "2",
        "type": "t_contract(IAccountRules)8991"
      },
      {
        "astId": 8670,
        "contract": "contracts/mainfactory.sol:MainFactory",
        "label": "factoryRecords",
        "offset": 0,
        "slot": "3",
        "type": "t_contract(IFactoryRecords)7973"
      },
      {
        "astId": 8673,
        "contract": "contracts/mainfactory.sol:MainFactory",
        "label": "subscriptionService",
        "offset": 0,
        "slot": "4",
        "type": "t_contract(ISubscriptionHandler)8007"
      },
      {
        "astId": 8676,
        "contract": "contracts/mainfactory.sol:MainFactory",
        "label": "TokenFactoryLevel",
        "offset": 20,
        "slot": "4",
        "type": "t_uint8"
      }
    ],
    "types": {
      "t_address": {
        "encoding": "inplace",
        "label": "address",
        "numberOfBytes": "20"
      },
      "t_array(t_bytes32)dyn_storage": {
        "base": "t_bytes32",
        "encoding": "dynamic_array",
        "label": "bytes32[]",
        "numberOfBytes": "32"
      },
      "t_bool": {
        "encoding": "inplace",
        "label": "bool",
        "numberOfBytes": "1"
      },
      "t_bytes32": {
        "encoding": "inplace",
        "label": "bytes32",
        "numberOfBytes": "32"
      },
      "t_contract(IAccountRules)8991": {
        "encoding": "inplace",
        "label": "contract IAccountRules",
        "numberOfBytes": "20"
      },
      "t_contract(IFactoryRecords)7973": {
        "encoding": "inplace",
        "label": "contract IFactoryRecords",
        "numberOfBytes": "20"
      },
      "t_contract(ISubscriptionHandler)8007": {
        "encoding": "inplace",
        "label": "contract ISubscriptionHandler",
        "numberOfBytes": "20"
      },
      "t_mapping(t_address,t_bool)": {
        "encoding": "mapping",
        "key": "t_address",
        "label": "mapping(address => bool)",
        "numberOfBytes": "32",
        "value": "t_bool"
      },
      "t_mapping(t_bytes32,t_struct(AddressSet)7576_storage)": {
        "encoding": "mapping",
        "key": "t_bytes32",
        "label": "mapping(bytes32 => struct EnumerableSet.AddressSet)",
        "numberOfBytes": "32",
        "value": "t_struct(AddressSet)7576_storage"
      },
      "t_mapping(t_bytes32,t_struct(RoleData)4460_storage)": {
        "encoding": "mapping",
        "key": "t_bytes32",
        "label": "mapping(bytes32 => struct AccessControl.RoleData)",
        "numberOfBytes": "32",
        "value": "t_struct(RoleData)4460_storage"
      },
      "t_mapping(t_bytes32,t_uint256)": {
        "encoding": "mapping",
        "key": "t_bytes32",
        "label": "mapping(bytes32 => uint256)",
        "numberOfBytes": "32",
        "value": "t_uint256"
      },
      "t_struct(AddressSet)7576_storage": {
        "encoding": "inplace",
        "label": "struct EnumerableSet.AddressSet",
        "members": [
          {
            "astId": 7575,
            "contract": "contracts/mainfactory.sol:MainFactory",
            "label": "_inner",
            "offset": 0,
            "slot": "0",
            "type": "t_struct(Set)7275_storage"
          }
        ],
        "numberOfBytes": "64"
      },
      "t_struct(RoleData)4460_storage": {
        "encoding": "inplace",
        "label": "struct AccessControl.RoleData",
        "members": [
          {
            "astId": 4457,
            "contract": "contracts/mainfactory.sol:MainFactory",
            "label": "members",
            "offset": 0,
            "slot": "0",
            "type": "t_mapping(t_address,t_bool)"
          },
          {
            "astId": 4459,
            "contract": "contracts/mainfactory.sol:MainFactory",
            "label": "adminRole",
            "offset": 0,
            "slot": "1",
            "type": "t_bytes32"
          }
        ],
        "numberOfBytes": "64"
      },
      "t_struct(Set)7275_storage": {
        "encoding": "inplace",
        "label": "struct EnumerableSet.Set",
        "members": [
          {
            "astId": 7270,
            "contract": "contracts/mainfactory.sol:MainFactory",
            "label": "_values",
            "offset": 0,
            "slot": "0",
            "type": "t_array(t_bytes32)dyn_storage"
          },
          {
            "astId": 7274,
            "contract": "contracts/mainfactory.sol:MainFactory",
            "label": "_indexes",
            "offset": 0,
            "slot": "1",
            "type": "t_mapping(t_bytes32,t_uint256)"
          }
        ],
        "numberOfBytes": "64"
      },
      "t_uint256": {
        "encoding": "inplace",
        "label": "uint256",
        "numberOfBytes": "32"
      },
      "t_uint8": {
        "encoding": "inplace",
        "label": "uint8",
        "numberOfBytes": "1"
      }
    }
  }
}