{
  "address": "0xcF0f691cEB2cFbd5bd40ceB3C284EEDCFF328B76",
  "abi": [
    {
      "anonymous": false,
      "inputs": [
        {
          "indexed": true,
          "internalType": "bytes32",
          "name": "node",
          "type": "bytes32"
        },
        {
          "indexed": true,
          "internalType": "uint256",
          "name": "contentType",
          "type": "uint256"
        }
      ],
      "name": "ABIChanged",
      "type": "event"
    },
    {
      "anonymous": false,
      "inputs": [
        {
          "indexed": true,
          "internalType": "bytes32",
          "name": "node",
          "type": "bytes32"
        },
        {
          "indexed": false,
          "internalType": "address",
          "name": "a",
          "type": "address"
        }
      ],
      "name": "AddrChanged",
      "type": "event"
    },
    {
      "anonymous": false,
      "inputs": [
        {
          "indexed": true,
          "internalType": "bytes32",
          "name": "node",
          "type": "bytes32"
        },
        {
          "indexed": false,
          "internalType": "uint256",
          "name": "coinType",
          "type": "uint256"
        },
        {
          "indexed": false,
          "internalType": "bytes",
          "name": "newAddress",
          "type": "bytes"
        }
      ],
      "name": "AddressChanged",
      "type": "event"
    },
    {
      "anonymous": false,
      "inputs": [
        {
          "indexed": true,
          "internalType": "bytes32",
          "name": "node",
          "type": "bytes32"
        },
        {
          "indexed": false,
          "internalType": "bytes",
          "name": "hash",
          "type": "bytes"
        }
      ],
      "name": "ContenthashChanged",
      "type": "event"
    },
    {
      "anonymous": false,
      "inputs": [
        {
          "indexed": true,
          "internalType": "bytes32",
          "name": "node",
          "type": "bytes32"
        },
        {
          "indexed": false,
          "internalType": "bytes",
          "name": "name",
          "type": "bytes"
        },
        {
          "indexed": false,
          "internalType": "uint16",
          "name": "resource",
          "type": "uint16"
        },
        {
          "indexed": false,
          "internalType": "bytes",
          "name": "record",
          "type": "bytes"
        }
      ],
      "name": "DNSRecordChanged",
      "type": "event"
    },
    {
      "anonymous": false,
      "inputs": [
        {
          "indexed": true,
          "internalType": "bytes32",
          "name": "node",
          "type": "bytes32"
        },
        {
          "indexed": false,
          "internalType": "bytes",
          "name": "name",
          "type": "bytes"
        },
        {
          "indexed": false,
          "internalType": "uint16",
          "name": "resource",
          "type": "uint16"
        }
      ],
      "name": "DNSRecordDeleted",
      "type": "event"
    },
    {
      "anonymous": false,
      "inputs": [
        {
          "indexed": true,
          "internalType": "bytes32",
          "name": "node",
          "type": "bytes32"
        }
      ],
      "name": "DNSZoneCleared",
      "type": "event"
    },
    {
      "anonymous": false,
      "inputs": [
        {
          "indexed": true,
          "internalType": "bytes32",
          "name": "node",
          "type": "bytes32"
        },
        {
          "indexed": false,
          "internalType": "bytes",
          "name": "lastzonehash",
          "type": "bytes"
        },
        {
          "indexed": false,
          "internalType": "bytes",
          "name": "zonehash",
          "type": "bytes"
        }
      ],
      "name": "DNSZonehashChanged",
      "type": "event"
    },
    {
      "anonymous": false,
      "inputs": [
        {
          "indexed": true,
          "internalType": "bytes32",
          "name": "node",
          "type": "bytes32"
        },
        {
          "indexed": true,
          "internalType": "bytes4",
          "name": "interfaceID",
          "type": "bytes4"
        },
        {
          "indexed": false,
          "internalType": "address",
          "name": "implementer",
          "type": "address"
        }
      ],
      "name": "InterfaceChanged",
      "type": "event"
    },
    {
      "anonymous": false,
      "inputs": [
        {
          "indexed": true,
          "internalType": "bytes32",
          "name": "node",
          "type": "bytes32"
        },
        {
          "indexed": false,
          "internalType": "string",
          "name": "name",
          "type": "string"
        }
      ],
      "name": "NameChanged",
      "type": "event"
    },
    {
      "anonymous": false,
      "inputs": [
        {
          "indexed": true,
          "internalType": "address",
          "name": "previousOwner",
          "type": "address"
        },
        {
          "indexed": true,
          "internalType": "address",
          "name": "newOwner",
          "type": "address"
        }
      ],
      "name": "OwnershipTransferred",
      "type": "event"
    },
    {
      "anonymous": false,
      "inputs": [
        {
          "indexed": true,
          "internalType": "bytes32",
          "name": "node",
          "type": "bytes32"
        },
        {
          "indexed": false,
          "internalType": "bytes32",
          "name": "x",
          "type": "bytes32"
        },
        {
          "indexed": false,
          "internalType": "bytes32",
          "name": "y",
          "type": "bytes32"
        }
      ],
      "name": "PubkeyChanged",
      "type": "event"
    },
    {
      "anonymous": false,
      "inputs": [
        {
          "indexed": true,
          "internalType": "bytes32",
          "name": "node",
          "type": "bytes32"
        },
        {
          "indexed": true,
          "internalType": "string",
          "name": "indexedKey",
          "type": "string"
        },
        {
          "indexed": false,
          "internalType": "string",
          "name": "key",
          "type": "string"
        }
      ],
      "name": "TextChanged",
      "type": "event"
    },
    {
      "inputs": [
        {
          "internalType": "bytes32",
          "name": "node",
          "type": "bytes32"
        },
        {
          "internalType": "uint256",
          "name": "contentTypes",
          "type": "uint256"
        }
      ],
      "name": "ABI",
      "outputs": [
        {
          "internalType": "uint256",
          "name": "",
          "type": "uint256"
        },
        {
          "internalType": "bytes",
          "name": "",
          "type": "bytes"
        }
      ],
      "stateMutability": "view",
      "type": "function"
    },
    {
      "inputs": [
        {
          "internalType": "bytes32",
          "name": "node",
          "type": "bytes32"
        }
      ],
      "name": "addr",
      "outputs": [
        {
          "internalType": "address payable",
          "name": "",
          "type": "address"
        }
      ],
      "stateMutability": "view",
      "type": "function"
    },
    {
      "inputs": [
        {
          "internalType": "bytes32",
          "name": "node",
          "type": "bytes32"
        },
        {
          "internalType": "uint256",
          "name": "coinType",
          "type": "uint256"
        }
      ],
      "name": "addr",
      "outputs": [
        {
          "internalType": "bytes",
          "name": "",
          "type": "bytes"
        }
      ],
      "stateMutability": "view",
      "type": "function"
    },
    {
      "inputs": [
        {
          "internalType": "bytes32",
          "name": "node",
          "type": "bytes32"
        }
      ],
      "name": "clearDNSZone",
      "outputs": [],
      "stateMutability": "nonpayable",
      "type": "function"
    },
    {
      "inputs": [
        {
          "internalType": "bytes32",
          "name": "node",
          "type": "bytes32"
        }
      ],
      "name": "contenthash",
      "outputs": [
        {
          "internalType": "bytes",
          "name": "",
          "type": "bytes"
        }
      ],
      "stateMutability": "view",
      "type": "function"
    },
    {
      "inputs": [
        {
          "internalType": "bytes32",
          "name": "node",
          "type": "bytes32"
        },
        {
          "internalType": "bytes32",
          "name": "name",
          "type": "bytes32"
        },
        {
          "internalType": "uint16",
          "name": "resource",
          "type": "uint16"
        }
      ],
      "name": "dnsRecord",
      "outputs": [
        {
          "internalType": "bytes",
          "name": "",
          "type": "bytes"
        }
      ],
      "stateMutability": "view",
      "type": "function"
    },
    {
      "inputs": [
        {
          "internalType": "bytes32",
          "name": "node",
          "type": "bytes32"
        },
        {
          "internalType": "bytes32",
          "name": "name",
          "type": "bytes32"
        }
      ],
      "name": "hasDNSRecords",
      "outputs": [
        {
          "internalType": "bool",
          "name": "",
          "type": "bool"
        }
      ],
      "stateMutability": "view",
      "type": "function"
    },
    {
      "inputs": [
        {
          "internalType": "bytes32",
          "name": "node",
          "type": "bytes32"
        },
        {
          "internalType": "bytes4",
          "name": "interfaceID",
          "type": "bytes4"
        }
      ],
      "name": "interfaceImplementer",
      "outputs": [
        {
          "internalType": "address",
          "name": "",
          "type": "address"
        }
      ],
      "stateMutability": "view",
      "type": "function"
    },
    {
      "inputs": [
        {
          "internalType": "bytes32",
          "name": "node",
          "type": "bytes32"
        }
      ],
      "name": "name",
      "outputs": [
        {
          "internalType": "string",
          "name": "",
          "type": "string"
        }
      ],
      "stateMutability": "view",
      "type": "function"
    },
    {
      "inputs": [],
      "name": "owner",
      "outputs": [
        {
          "internalType": "address",
          "name": "",
          "type": "address"
        }
      ],
      "stateMutability": "view",
      "type": "function"
    },
    {
      "inputs": [
        {
          "internalType": "bytes32",
          "name": "node",
          "type": "bytes32"
        }
      ],
      "name": "pubkey",
      "outputs": [
        {
          "internalType": "bytes32",
          "name": "x",
          "type": "bytes32"
        },
        {
          "internalType": "bytes32",
          "name": "y",
          "type": "bytes32"
        }
      ],
      "stateMutability": "view",
      "type": "function"
    },
    {
      "inputs": [],
      "name": "renounceOwnership",
      "outputs": [],
      "stateMutability": "nonpayable",
      "type": "function"
    },
    {
      "inputs": [
        {
          "internalType": "bytes32",
          "name": "node",
          "type": "bytes32"
        },
        {
          "internalType": "uint256",
          "name": "contentType",
          "type": "uint256"
        },
        {
          "internalType": "bytes",
          "name": "data",
          "type": "bytes"
        }
      ],
      "name": "setABI",
      "outputs": [],
      "stateMutability": "nonpayable",
      "type": "function"
    },
    {
      "inputs": [
        {
          "internalType": "bytes32",
          "name": "node",
          "type": "bytes32"
        },
        {
          "internalType": "uint256",
          "name": "coinType",
          "type": "uint256"
        },
        {
          "internalType": "bytes",
          "name": "a",
          "type": "bytes"
        }
      ],
      "name": "setAddr",
      "outputs": [],
      "stateMutability": "nonpayable",
      "type": "function"
    },
    {
      "inputs": [
        {
          "internalType": "bytes32",
          "name": "node",
          "type": "bytes32"
        },
        {
          "internalType": "address",
          "name": "a",
          "type": "address"
        }
      ],
      "name": "setAddr",
      "outputs": [],
      "stateMutability": "nonpayable",
      "type": "function"
    },
    {
      "inputs": [
        {
          "internalType": "bytes32",
          "name": "node",
          "type": "bytes32"
        },
        {
          "internalType": "bytes",
          "name": "hash",
          "type": "bytes"
        }
      ],
      "name": "setContenthash",
      "outputs": [],
      "stateMutability": "nonpayable",
      "type": "function"
    },
    {
      "inputs": [
        {
          "internalType": "bytes32",
          "name": "node",
          "type": "bytes32"
        },
        {
          "internalType": "bytes",
          "name": "data",
          "type": "bytes"
        }
      ],
      "name": "setDNSRecords",
      "outputs": [],
      "stateMutability": "nonpayable",
      "type": "function"
    },
    {
      "inputs": [
        {
          "internalType": "bytes32",
          "name": "node",
          "type": "bytes32"
        },
        {
          "internalType": "bytes4",
          "name": "interfaceID",
          "type": "bytes4"
        },
        {
          "internalType": "address",
          "name": "implementer",
          "type": "address"
        }
      ],
      "name": "setInterface",
      "outputs": [],
      "stateMutability": "nonpayable",
      "type": "function"
    },
    {
      "inputs": [
        {
          "internalType": "bytes32",
          "name": "node",
          "type": "bytes32"
        },
        {
          "internalType": "string",
          "name": "name",
          "type": "string"
        }
      ],
      "name": "setName",
      "outputs": [],
      "stateMutability": "nonpayable",
      "type": "function"
    },
    {
      "inputs": [
        {
          "internalType": "bytes32",
          "name": "node",
          "type": "bytes32"
        },
        {
          "internalType": "bytes32",
          "name": "x",
          "type": "bytes32"
        },
        {
          "internalType": "bytes32",
          "name": "y",
          "type": "bytes32"
        }
      ],
      "name": "setPubkey",
      "outputs": [],
      "stateMutability": "nonpayable",
      "type": "function"
    },
    {
      "inputs": [
        {
          "internalType": "bytes32",
          "name": "node",
          "type": "bytes32"
        },
        {
          "internalType": "string",
          "name": "key",
          "type": "string"
        },
        {
          "internalType": "string",
          "name": "value",
          "type": "string"
        }
      ],
      "name": "setText",
      "outputs": [],
      "stateMutability": "nonpayable",
      "type": "function"
    },
    {
      "inputs": [
        {
          "internalType": "bytes32",
          "name": "node",
          "type": "bytes32"
        },
        {
          "internalType": "bytes",
          "name": "hash",
          "type": "bytes"
        }
      ],
      "name": "setZonehash",
      "outputs": [],
      "stateMutability": "nonpayable",
      "type": "function"
    },
    {
      "inputs": [
        {
          "internalType": "bytes4",
          "name": "interfaceID",
          "type": "bytes4"
        }
      ],
      "name": "supportsInterface",
      "outputs": [
        {
          "internalType": "bool",
          "name": "",
          "type": "bool"
        }
      ],
      "stateMutability": "pure",
      "type": "function"
    },
    {
      "inputs": [
        {
          "internalType": "bytes32",
          "name": "node",
          "type": "bytes32"
        },
        {
          "internalType": "string",
          "name": "key",
          "type": "string"
        }
      ],
      "name": "text",
      "outputs": [
        {
          "internalType": "string",
          "name": "",
          "type": "string"
        }
      ],
      "stateMutability": "view",
      "type": "function"
    },
    {
      "inputs": [
        {
          "internalType": "address",
          "name": "newOwner",
          "type": "address"
        }
      ],
      "name": "transferOwnership",
      "outputs": [],
      "stateMutability": "nonpayable",
      "type": "function"
    },
    {
      "inputs": [
        {
          "internalType": "bytes32",
          "name": "node",
          "type": "bytes32"
        }
      ],
      "name": "zonehash",
      "outputs": [
        {
          "internalType": "bytes",
          "name": "",
          "type": "bytes"
        }
      ],
      "stateMutability": "view",
      "type": "function"
    }
  ],
  "transactionHash": "0x39b3088ec028bed49914c87fcb75e4e4b96d915cb424218ed7ad9352ed40fda1",
  "args": [],
  "solcInputHash": "e1af43b2c04c1effdf1f0485c7ba63ee",
  "bytecode": "0x608060405234801561001057600080fd5b5061001a3361001f565b61006f565b600080546001600160a01b038381166001600160a01b0319831681178455604051919092169283917f8be0079c531659141344cd1fd0a4f28419497f9722a3daafe3b4186f6b6457e09190a35050565b61228c8061007e6000396000f3fe608060405234801561001057600080fd5b506004361061018e5760003560e01c8063715018a6116100de578063bc1c58d111610097578063d5fa2b0011610071578063d5fa2b00146103c9578063e59d895d146103dc578063f1cb7e06146103ef578063f2fde38b1461040257600080fd5b8063bc1c58d114610366578063c869023314610379578063ce3decdc146103b657600080fd5b8063715018a61461030157806377372213146103095780638b95dd711461031c5780638da5cb5b1461032f578063a8fa568214610340578063ad5780af1461035357600080fd5b8063304e6ade1161014b57806359d1d43c1161012557806359d1d43c146102a85780635c98042b146102c8578063623195b0146102db578063691f3431146102ee57600080fd5b8063304e6ade146102425780633b3b57de146102555780634cbf6ba41461026857600080fd5b806301ffc9a7146101935780630af179d7146101bb57806310f13a8c146101d0578063124a319c146101e35780632203ab561461020e57806329cd62ea1461022f575b600080fd5b6101a66101a1366004611fd5565b610415565b60405190151581526020015b60405180910390f35b6101ce6101c9366004611e04565b610426565b005b6101ce6101de366004611e4e565b610617565b6101f66101f1366004611da7565b6106ca565b6040516001600160a01b0390911681526020016101b2565b61022161021c366004611d1d565b61091e565b6040516101b292919061211c565b6101ce61023d366004611d3e565b610a39565b6101ce610250366004611e04565b610abf565b6101f6610263366004611cda565b610b24565b6101a6610276366004611d1d565b600091825260076020908152604080842060058352818520548552825280842092845291905290205461ffff16151590565b6102bb6102b6366004611e04565b610b57565b6040516101b29190612084565b6102bb6102d6366004611cda565b610c1c565b6101ce6102e9366004611ec5565b610cbe565b6102bb6102fc366004611cda565b610d47565b6101ce610d64565b6101ce610317366004611e04565b610dcf565b6101ce61032a366004611f16565b610e34565b6000546001600160a01b03166101f6565b6102bb61034e366004611d69565b610f05565b6101ce610361366004611cda565b610f48565b6102bb610374366004611cda565b610faf565b6103a1610387366004611cda565b6000908152600a6020526040902080546001909101549091565b604080519283526020830191909152016101b2565b6101ce6103c4366004611e04565b610fcc565b6101ce6103d7366004611cf2565b6110de565b6101ce6103ea366004611dc9565b61110b565b6102bb6103fd366004611d1d565b61119e565b6101ce610410366004611cc0565b61124c565b600061042082611317565b92915050565b60005483906001600160a01b0316331461043f57600080fd5b60008060608060008061048c60008a8a8080601f016020809104026020016040519081016040528093929190818152602001838380828437600092019190915250929392505061133c9050565b90505b805151602082015110156105b25761ffff86166104f157806040015195506104b68161139d565b9350836040516020016104c99190612044565b6040516020818303038152906040528051906020012091506104ea816113be565b92506105a4565b60006104fc8261139d565b9050816040015161ffff168761ffff16141580610520575061051e85826113da565b155b156105a25761057b8b86898d8d8080601f016020809104026020016040519081016040528093929190818152602001838380828437600092019190915250505060208801518c915061057390829061214d565b8a51156113f8565b81604001519650816020015195508094508480519060200120925061059f826113be565b93505b505b6105ad8161163a565b61048f565b5082511561060c5761060c8984878b8b8080601f0160208091040260200160405190810160405280939291908181526020018383808284376000920191909152508b925061060491508290508e61214d565b8851156113f8565b505050505050505050565b60005485906001600160a01b0316331461063057600080fd5b8282600b60008981526020019081526020016000208787604051610655929190612060565b90815260405190819003602001902061066f929091611b09565b508484604051610680929190612060565b6040518091039020867fd8c9334b1a9c2f9da342a0a2b32629c1a229b6445dad78947f674b44444a755087876040516106ba929190612070565b60405180910390a3505050505050565b60008281526008602090815260408083206001600160e01b0319851684529091528120546001600160a01b03168015610704579050610420565b600061070f85610b24565b90506001600160a01b03811661072a57600092505050610420565b6040516301ffc9a760e01b602482015260009081906001600160a01b0384169060440160408051601f198184030181529181526020820180516001600160e01b03166301ffc9a760e01b179052516107829190612044565b600060405180830381855afa9150503d80600081146107bd576040519150601f19603f3d011682016040523d82523d6000602084013e6107c2565b606091505b50915091508115806107d5575060208151105b8061080d575080601f815181106107fc57634e487b7160e01b600052603260045260246000fd5b01602001516001600160f81b031916155b1561081f576000945050505050610420565b6040516001600160e01b0319871660248201526001600160a01b0384169060440160408051601f198184030181529181526020820180516001600160e01b03166301ffc9a760e01b179052516108759190612044565b600060405180830381855afa9150503d80600081146108b0576040519150601f19603f3d011682016040523d82523d6000602084013e6108b5565b606091505b5090925090508115806108c9575060208151105b80610901575080601f815181106108f057634e487b7160e01b600052603260045260246000fd5b01602001516001600160f81b031916155b15610913576000945050505050610420565b509095945050505050565b600082815260016020819052604082206060915b848111610a19578085161580159061096257506000818152602083905260408120805461095e906121b2565b9050115b15610a115780826000838152602001908152602001600020808054610986906121b2565b80601f01602080910402602001604051908101604052809291908181526020018280546109b2906121b2565b80156109ff5780601f106109d4576101008083540402835291602001916109ff565b820191906000526020600020905b8154815290600101906020018083116109e257829003601f168201915b50505050509050935093505050610a32565b60011b610932565b5060006040518060200160405280600081525092509250505b9250929050565b60005483906001600160a01b03163314610a5257600080fd5b60408051808201825284815260208082018581526000888152600a83528490209251835551600190920191909155815185815290810184905285917f1d6f5e03d3f63eb58751986629a5439baee5079ff04f345becb66e23eb154e4691015b60405180910390a250505050565b60005483906001600160a01b03163314610ad857600080fd5b6000848152600360205260409020610af1908484611b09565b50837fe379c1624ed7e714cc0937528a32359d69d5281337765313dba4e081b72d75788484604051610ab1929190612070565b600080610b3283603c61119e565b9050805160001415610b475750600092915050565b610b5081611722565b9392505050565b6060600b60008581526020019081526020016000208383604051610b7c929190612060565b90815260200160405180910390208054610b95906121b2565b80601f0160208091040260200160405190810160405280929190818152602001828054610bc1906121b2565b8015610c0e5780601f10610be357610100808354040283529160200191610c0e565b820191906000526020600020905b815481529060010190602001808311610bf157829003601f168201915b505050505090509392505050565b6000818152600460205260409020805460609190610c39906121b2565b80601f0160208091040260200160405190810160405280929190818152602001828054610c65906121b2565b8015610cb25780601f10610c8757610100808354040283529160200191610cb2565b820191906000526020600020905b815481529060010190602001808311610c9557829003601f168201915b50505050509050919050565b60005484906001600160a01b03163314610cd757600080fd5b83610ce360018261214d565b1615610cee57600080fd5b60008581526001602090815260408083208784529091529020610d12908484611b09565b50604051849086907faa121bbeef5f32f5961a2a28966e769023910fc9479059ee3495d4c1a696efe390600090a35050505050565b6000818152600960205260409020805460609190610c39906121b2565b6000546001600160a01b03163314610dc35760405162461bcd60e51b815260206004820181905260248201527f4f776e61626c653a2063616c6c6572206973206e6f7420746865206f776e657260448201526064015b60405180910390fd5b610dcd6000611741565b565b60005483906001600160a01b03163314610de857600080fd5b6000848152600960205260409020610e01908484611b09565b50837fb7d29e911041e8d9b843369e890bcb72c9388692ba48b65ac54e7214c4c348f78484604051610ab1929190612070565b60005483906001600160a01b03163314610e4d57600080fd5b837f65412581168e88a1e60c6459d7f44ae83ad0832e670826c05a4e2476b57af7528484604051610e7f92919061211c565b60405180910390a2603c831415610ed757837f52d7d861f09ab3d26239d492e8968629f95e9e318cf0b73bfddc441522a15fd2610ebb84611722565b6040516001600160a01b03909116815260200160405180910390a25b600084815260026020908152604080832086845282529091208351610efe92850190611b8d565b5050505050565b6000838152600660209081526040808320600583528184205484528252808320858452825280832061ffff851684529091529020805460609190610b95906121b2565b60005481906001600160a01b03163314610f6157600080fd5b6000828152600560205260408120805491610f7b8361220f565b909155505060405182907fb757169b8492ca2f1c6619d9d76ce22803035c3b1d5f6930dffe7b127c1a198390600090a25050565b6000818152600360205260409020805460609190610c39906121b2565b60005483906001600160a01b03163314610fe557600080fd5b60008481526004602052604081208054610ffe906121b2565b80601f016020809104026020016040519081016040528092919081815260200182805461102a906121b2565b80156110775780601f1061104c57610100808354040283529160200191611077565b820191906000526020600020905b81548152906001019060200180831161105a57829003601f168201915b505050600088815260046020526040902092935061109a92915086905085611b09565b50847f8f15ed4b723ef428f250961da8315675b507046737e19319fc1a4d81bfe87f858286866040516110cf93929190612097565b60405180910390a25050505050565b60005482906001600160a01b031633146110f757600080fd5b61110683603c61032a85611791565b505050565b60005483906001600160a01b0316331461112457600080fd5b60008481526008602090815260408083206001600160e01b031987168085529083529281902080546001600160a01b0319166001600160a01b038716908117909155905190815286917f7c69f06bea0bdef565b709e93a147836b0063ba2dd89f02d0b7e8d931e6a6daa910160405180910390a350505050565b600082815260026020908152604080832084845290915290208054606091906111c6906121b2565b80601f01602080910402602001604051908101604052809291908181526020018280546111f2906121b2565b801561123f5780601f106112145761010080835404028352916020019161123f565b820191906000526020600020905b81548152906001019060200180831161122257829003601f168201915b5050505050905092915050565b6000546001600160a01b031633146112a65760405162461bcd60e51b815260206004820181905260248201527f4f776e61626c653a2063616c6c6572206973206e6f7420746865206f776e65726044820152606401610dba565b6001600160a01b03811661130b5760405162461bcd60e51b815260206004820152602660248201527f4f776e61626c653a206e6577206f776e657220697320746865207a65726f206160448201526564647265737360d01b6064820152608401610dba565b61131481611741565b50565b60006001600160e01b03198216631674750f60e21b14806104205750610420826117c1565b61138a6040518060e001604052806060815260200160008152602001600061ffff168152602001600061ffff168152602001600063ffffffff16815260200160008152602001600081525090565b82815260c081018290526104208161163a565b60208101518151606091610420916113b590826117e6565b84519190611853565b60a081015160c0820151606091610420916113b590829061214d565b600081518351148015610b505750610b5083600084600087516118d8565b6000878152600560209081526040822054885191890191909120909161141f878787611853565b905083156115285760008a81526006602090815260408083208684528252808320858452825280832061ffff8c1684529091529020805461145f906121b2565b1590506114b35760008a815260076020908152604080832086845282528083208584529091528120805461ffff169161149783612194565b91906101000a81548161ffff021916908361ffff160217905550505b60008a81526006602090815260408083208684528252808320858452825280832061ffff8c16845290915281206114e991611c01565b897f03528ed0c2a3ebc993b12ce3c16bb382f9c7d88ef7d8a1bf290eaf35955a12078a8a60405161151b9291906120c7565b60405180910390a261162e565b60008a81526006602090815260408083208684528252808320858452825280832061ffff8c16845290915290208054611560906121b2565b151590506115b55760008a815260076020908152604080832086845282528083208584529091528120805461ffff1691611599836121ed565b91906101000a81548161ffff021916908361ffff160217905550505b60008a81526006602090815260408083208684528252808320858452825280832061ffff8c168452825290912082516115f092840190611b8d565b50897f52a608b3303a48862d07a73d82fa221318c0027fbbcfb1b2329bface3f19ff2b8a8a84604051611625939291906120ed565b60405180910390a25b50505050505050505050565b60c081015160208201819052815151116116515750565b6000611665826000015183602001516117e6565b82602001516116749190612135565b825190915061168390826118fb565b61ffff166040830152611697600282612135565b82519091506116a690826118fb565b61ffff1660608301526116ba600282612135565b82519091506116c99082611923565b63ffffffff1660808301526116df600482612135565b82519091506000906116f190836118fb565b61ffff169050611702600283612135565b60a0840181905291506117158183612135565b60c0909301929092525050565b6000815160141461173257600080fd5b5060200151600160601b900490565b600080546001600160a01b038381166001600160a01b0319831681178455604051919092169283917f8be0079c531659141344cd1fd0a4f28419497f9722a3daafe3b4186f6b6457e09190a35050565b604080516014808252818301909252606091602082018180368337505050600160601b9290920260208301525090565b60006001600160e01b0319821663c869023360e01b148061042057506104208261194d565b6000815b8351811061180857634e487b7160e01b600052600160045260246000fd5b60006118148583611972565b60ff169050611824816001612135565b61182e9083612135565b91508061183b5750611841565b506117ea565b61184b838261214d565b949350505050565b82516060906118628385612135565b111561186d57600080fd5b60008267ffffffffffffffff81111561189657634e487b7160e01b600052604160045260246000fd5b6040519080825280601f01601f1916602001820160405280156118c0576020820181803683370190505b509050602080820190868601016109138282876119a4565b60006118e58484846119fa565b6118f08787856119fa565b149695505050505050565b815160009061190b836002612135565b111561191657600080fd5b50016002015161ffff1690565b8151600090611933836004612135565b111561193e57600080fd5b50016004015163ffffffff1690565b60006001600160e01b0319821663691f343160e01b1480610420575061042082611a1e565b600082828151811061199457634e487b7160e01b600052603260045260246000fd5b016020015160f81c905092915050565b602081106119dc57815183526119bb602084612135565b92506119c8602083612135565b91506119d560208261214d565b90506119a4565b905182516020929092036101000a6000190180199091169116179052565b8251600090611a098385612135565b1115611a1457600080fd5b5091016020012090565b60006001600160e01b031982166304928c6760e21b148061042057506104208260006001600160e01b0319821663547d2b4160e11b1480611a6f57506001600160e01b03198216631711d8df60e21b145b8061042057506104208260006001600160e01b0319821663bc1c58d160e01b148061042057506104208260006001600160e01b03198216631d9dabef60e11b1480611aca57506001600160e01b031982166378e5bf0360e11b145b8061042057506104208260006001600160e01b03198216631101d5ab60e11b148061042057506301ffc9a760e01b6001600160e01b0319831614610420565b828054611b15906121b2565b90600052602060002090601f016020900481019282611b375760008555611b7d565b82601f10611b505782800160ff19823516178555611b7d565b82800160010185558215611b7d579182015b82811115611b7d578235825591602001919060010190611b62565b50611b89929150611c37565b5090565b828054611b99906121b2565b90600052602060002090601f016020900481019282611bbb5760008555611b7d565b82601f10611bd457805160ff1916838001178555611b7d565b82800160010185558215611b7d579182015b82811115611b7d578251825591602001919060010190611be6565b508054611c0d906121b2565b6000825580601f10611c1d575050565b601f01602090049060005260206000209081019061131491905b5b80821115611b895760008155600101611c38565b80356001600160a01b0381168114611c6357600080fd5b919050565b80356001600160e01b031981168114611c6357600080fd5b60008083601f840112611c91578182fd5b50813567ffffffffffffffff811115611ca8578182fd5b602083019150836020828501011115610a3257600080fd5b600060208284031215611cd1578081fd5b610b5082611c4c565b600060208284031215611ceb578081fd5b5035919050565b60008060408385031215611d04578081fd5b82359150611d1460208401611c4c565b90509250929050565b60008060408385031215611d2f578182fd5b50508035926020909101359150565b600080600060608486031215611d52578081fd5b505081359360208301359350604090920135919050565b600080600060608486031215611d7d578283fd5b8335925060208401359150604084013561ffff81168114611d9c578182fd5b809150509250925092565b60008060408385031215611db9578182fd5b82359150611d1460208401611c68565b600080600060608486031215611ddd578283fd5b83359250611ded60208501611c68565b9150611dfb60408501611c4c565b90509250925092565b600080600060408486031215611e18578283fd5b83359250602084013567ffffffffffffffff811115611e35578283fd5b611e4186828701611c80565b9497909650939450505050565b600080600080600060608688031215611e65578081fd5b85359450602086013567ffffffffffffffff80821115611e83578283fd5b611e8f89838a01611c80565b90965094506040880135915080821115611ea7578283fd5b50611eb488828901611c80565b969995985093965092949392505050565b60008060008060608587031215611eda578182fd5b8435935060208501359250604085013567ffffffffffffffff811115611efe578283fd5b611f0a87828801611c80565b95989497509550505050565b600080600060608486031215611f2a578081fd5b8335925060208401359150604084013567ffffffffffffffff80821115611f4f578283fd5b818601915086601f830112611f62578283fd5b813581811115611f7457611f74612240565b604051601f8201601f19908116603f01168101908382118183101715611f9c57611f9c612240565b81604052828152896020848701011115611fb4578586fd5b82602086016020830137856020848301015280955050505050509250925092565b600060208284031215611fe6578081fd5b610b5082611c68565b81835281816020850137506000828201602090810191909152601f909101601f19169091010190565b60008151808452612030816020860160208601612164565b601f01601f19169290920160200192915050565b60008251612056818460208701612164565b9190910192915050565b8183823760009101908152919050565b60208152600061184b602083018486611fef565b602081526000610b506020830184612018565b6040815260006120aa6040830186612018565b82810360208401526120bd818587611fef565b9695505050505050565b6040815260006120da6040830185612018565b905061ffff831660208301529392505050565b6060815260006121006060830186612018565b61ffff8516602084015282810360408401526120bd8185612018565b82815260406020820152600061184b6040830184612018565b600082198211156121485761214861222a565b500190565b60008282101561215f5761215f61222a565b500390565b60005b8381101561217f578181015183820152602001612167565b8381111561218e576000848401525b50505050565b600061ffff8216806121a8576121a861222a565b6000190192915050565b600181811c908216806121c657607f821691505b602082108114156121e757634e487b7160e01b600052602260045260246000fd5b50919050565b600061ffff808316818114156122055761220561222a565b6001019392505050565b60006000198214156122235761222361222a565b5060010190565b634e487b7160e01b600052601160045260246000fd5b634e487b7160e01b600052604160045260246000fdfea26469706673582212201f92c1fb33e2742e0eab65f19e9d924defe378b78538a42917edbd58674b047764736f6c63430008040033",
  "devdoc": {
    "kind": "dev",
    "methods": {
      "ABI(bytes32,uint256)": {
        "params": {
          "contentTypes": "A bitwise OR of the ABI formats accepted by the caller.",
          "node": "The ENS node to query"
        },
        "returns": {
          "_0": "contentType The content type of the return value",
          "_1": "data The ABI data"
        }
      },
      "addr(bytes32)": {
        "params": {
          "node": "The ENS node to query."
        },
        "returns": {
          "_0": "The associated address."
        }
      },
      "clearDNSZone(bytes32)": {
        "params": {
          "node": "the namehash of the node for which to clear the zone"
        }
      },
      "contenthash(bytes32)": {
        "params": {
          "node": "The ENS node to query."
        },
        "returns": {
          "_0": "The associated contenthash."
        }
      },
      "dnsRecord(bytes32,bytes32,uint16)": {
        "params": {
          "name": "the keccak-256 hash of the fully-qualified name for which to fetch the record",
          "node": "the namehash of the node for which to fetch the record",
          "resource": "the ID of the resource as per https://en.wikipedia.org/wiki/List_of_DNS_record_types"
        },
        "returns": {
          "_0": "the DNS record in wire format if present, otherwise empty"
        }
      },
      "hasDNSRecords(bytes32,bytes32)": {
        "params": {
          "name": "the namehash of the node for which to check the records",
          "node": "the namehash of the node for which to check the records"
        }
      },
      "interfaceImplementer(bytes32,bytes4)": {
        "params": {
          "interfaceID": "The EIP 165 interface ID to check for.",
          "node": "The ENS node to query."
        },
        "returns": {
          "_0": "The address that implements this interface, or 0 if the interface is unsupported."
        }
      },
      "name(bytes32)": {
        "params": {
          "node": "The ENS node to query."
        },
        "returns": {
          "_0": "The associated name."
        }
      },
      "owner()": {
        "details": "Returns the address of the current owner."
      },
      "pubkey(bytes32)": {
        "params": {
          "node": "The ENS node to query"
        },
        "returns": {
          "x": "The X coordinate of the curve point for the public key.",
          "y": "The Y coordinate of the curve point for the public key."
        }
      },
      "renounceOwnership()": {
        "details": "Leaves the contract without owner. It will not be possible to call `onlyOwner` functions anymore. Can only be called by the current owner. NOTE: Renouncing ownership will leave the contract without an owner, thereby removing any functionality that is only available to the owner."
      },
      "setABI(bytes32,uint256,bytes)": {
        "params": {
          "contentType": "The content type of the ABI",
          "data": "The ABI data.",
          "node": "The node to update."
        }
      },
      "setAddr(bytes32,address)": {
        "params": {
          "a": "The address to set.",
          "node": "The node to update."
        }
      },
      "setContenthash(bytes32,bytes)": {
        "params": {
          "hash": "The contenthash to set",
          "node": "The node to update."
        }
      },
      "setDNSRecords(bytes32,bytes)": {
        "params": {
          "data": "the DNS wire format records to set",
          "node": "the namehash of the node for which to set the records"
        }
      },
      "setInterface(bytes32,bytes4,address)": {
        "params": {
          "implementer": "The address of a contract that implements this interface for this node.",
          "interfaceID": "The EIP 165 interface ID.",
          "node": "The node to update."
        }
      },
      "setName(bytes32,string)": {
        "params": {
          "name": "The name to set.",
          "node": "The node to update."
        }
      },
      "setPubkey(bytes32,bytes32,bytes32)": {
        "params": {
          "node": "The ENS node to query",
          "x": "the X coordinate of the curve point for the public key.",
          "y": "the Y coordinate of the curve point for the public key."
        }
      },
      "setText(bytes32,string,string)": {
        "params": {
          "key": "The key to set.",
          "node": "The node to update.",
          "value": "The text data value to set."
        }
      },
      "setZonehash(bytes32,bytes)": {
        "params": {
          "hash": "The zonehash to set",
          "node": "The node to update."
        }
      },
      "text(bytes32,string)": {
        "params": {
          "key": "The text data key to query.",
          "node": "The ENS node to query."
        },
        "returns": {
          "_0": "The associated text data."
        }
      },
      "transferOwnership(address)": {
        "details": "Transfers ownership of the contract to a new account (`newOwner`). Can only be called by the current owner."
      },
      "zonehash(bytes32)": {
        "params": {
          "node": "The ENS node to query."
        },
        "returns": {
          "_0": "The associated contenthash."
        }
      }
    },
    "version": 1
  },
  "userdoc": {
    "kind": "user",
    "methods": {
      "ABI(bytes32,uint256)": {
        "notice": "Returns the ABI associated with an ENS node. Defined in EIP205."
      },
      "addr(bytes32)": {
        "notice": "Returns the address associated with an ENS node."
      },
      "clearDNSZone(bytes32)": {
        "notice": "Clear all information for a DNS zone."
      },
      "contenthash(bytes32)": {
        "notice": "Returns the contenthash associated with an ENS node."
      },
      "dnsRecord(bytes32,bytes32,uint16)": {
        "notice": "Obtain a DNS record."
      },
      "hasDNSRecords(bytes32,bytes32)": {
        "notice": "Check if a given node has records."
      },
      "interfaceImplementer(bytes32,bytes4)": {
        "notice": "Returns the address of a contract that implements the specified interface for this name. If an implementer has not been set for this interfaceID and name, the resolver will query the contract at `addr()`. If `addr()` is set, a contract exists at that address, and that contract implements EIP165 and returns `true` for the specified interfaceID, its address will be returned."
      },
      "name(bytes32)": {
        "notice": "Returns the name associated with an ENS node, for reverse records. Defined in EIP181."
      },
      "pubkey(bytes32)": {
        "notice": "Returns the SECP256k1 public key associated with an ENS node. Defined in EIP 619."
      },
      "setABI(bytes32,uint256,bytes)": {
        "notice": "Sets the ABI associated with an ENS node. Nodes may have one ABI of each content type. To remove an ABI, set it to the empty string."
      },
      "setAddr(bytes32,address)": {
        "notice": "Sets the address associated with an ENS node. May only be called by the owner of that node in the ENS registry."
      },
      "setContenthash(bytes32,bytes)": {
        "notice": "Sets the contenthash associated with an ENS node. May only be called by the owner of that node in the ENS registry."
      },
      "setDNSRecords(bytes32,bytes)": {
        "notice": "Set one or more DNS records.  Records are supplied in wire-format. Records with the same node/name/resource must be supplied one after the other to ensure the data is updated correctly. For example, if the data was supplied:     a.example.com IN A 1.2.3.4     a.example.com IN A 5.6.7.8     www.example.com IN CNAME a.example.com. then this would store the two A records for a.example.com correctly as a single RRSET, however if the data was supplied:     a.example.com IN A 1.2.3.4     www.example.com IN CNAME a.example.com.     a.example.com IN A 5.6.7.8 then this would store the first A record, the CNAME, then the second A record which would overwrite the first."
      },
      "setInterface(bytes32,bytes4,address)": {
        "notice": "Sets an interface associated with a name. Setting the address to 0 restores the default behaviour of querying the contract at `addr()` for interface support."
      },
      "setName(bytes32,string)": {
        "notice": "Sets the name associated with an ENS node, for reverse records. May only be called by the owner of that node in the ENS registry."
      },
      "setPubkey(bytes32,bytes32,bytes32)": {
        "notice": "Sets the SECP256k1 public key associated with an ENS node."
      },
      "setText(bytes32,string,string)": {
        "notice": "Sets the text data associated with an ENS node and key. May only be called by the owner of that node in the ENS registry."
      },
      "setZonehash(bytes32,bytes)": {
        "notice": "setZonehash sets the hash for the zone. May only be called by the owner of that node in the ENS registry."
      },
      "text(bytes32,string)": {
        "notice": "Returns the text data associated with an ENS node and key."
      },
      "zonehash(bytes32)": {
        "notice": "zonehash obtains the hash for the zone."
      }
    },
    "notice": "A simple resolver anyone can use; only allows the owner of a node to set its address.",
    "version": 1
  },
  "storageLayout": {
    "storage": [
      {
        "astId": 5032,
        "contract": "@ensdomains/ens-contracts/contracts/resolvers/OwnedResolver.sol:OwnedResolver",
        "label": "_owner",
        "offset": 0,
        "slot": "0",
        "type": "t_address"
      },
      {
        "astId": 3131,
        "contract": "@ensdomains/ens-contracts/contracts/resolvers/OwnedResolver.sol:OwnedResolver",
        "label": "abis",
        "offset": 0,
        "slot": "1",
        "type": "t_mapping(t_bytes32,t_mapping(t_uint256,t_bytes_storage))"
      },
      {
        "astId": 3285,
        "contract": "@ensdomains/ens-contracts/contracts/resolvers/OwnedResolver.sol:OwnedResolver",
        "label": "_addresses",
        "offset": 0,
        "slot": "2",
        "type": "t_mapping(t_bytes32,t_mapping(t_uint256,t_bytes_storage))"
      },
      {
        "astId": 3432,
        "contract": "@ensdomains/ens-contracts/contracts/resolvers/OwnedResolver.sol:OwnedResolver",
        "label": "hashes",
        "offset": 0,
        "slot": "3",
        "type": "t_mapping(t_bytes32,t_bytes_storage)"
      },
      {
        "astId": 3538,
        "contract": "@ensdomains/ens-contracts/contracts/resolvers/OwnedResolver.sol:OwnedResolver",
        "label": "zonehashes",
        "offset": 0,
        "slot": "4",
        "type": "t_mapping(t_bytes32,t_bytes_storage)"
      },
      {
        "astId": 3542,
        "contract": "@ensdomains/ens-contracts/contracts/resolvers/OwnedResolver.sol:OwnedResolver",
        "label": "versions",
        "offset": 0,
        "slot": "5",
        "type": "t_mapping(t_bytes32,t_uint256)"
      },
      {
        "astId": 3552,
        "contract": "@ensdomains/ens-contracts/contracts/resolvers/OwnedResolver.sol:OwnedResolver",
        "label": "records",
        "offset": 0,
        "slot": "6",
        "type": "t_mapping(t_bytes32,t_mapping(t_uint256,t_mapping(t_bytes32,t_mapping(t_uint16,t_bytes_storage))))"
      },
      {
        "astId": 3560,
        "contract": "@ensdomains/ens-contracts/contracts/resolvers/OwnedResolver.sol:OwnedResolver",
        "label": "nameEntriesCount",
        "offset": 0,
        "slot": "7",
        "type": "t_mapping(t_bytes32,t_mapping(t_uint256,t_mapping(t_bytes32,t_uint16)))"
      },
      {
        "astId": 4021,
        "contract": "@ensdomains/ens-contracts/contracts/resolvers/OwnedResolver.sol:OwnedResolver",
        "label": "interfaces",
        "offset": 0,
        "slot": "8",
        "type": "t_mapping(t_bytes32,t_mapping(t_bytes4,t_address))"
      },
      {
        "astId": 4204,
        "contract": "@ensdomains/ens-contracts/contracts/resolvers/OwnedResolver.sol:OwnedResolver",
        "label": "names",
        "offset": 0,
        "slot": "9",
        "type": "t_mapping(t_bytes32,t_string_storage)"
      },
      {
        "astId": 4285,
        "contract": "@ensdomains/ens-contracts/contracts/resolvers/OwnedResolver.sol:OwnedResolver",
        "label": "pubkeys",
        "offset": 0,
        "slot": "10",
        "type": "t_mapping(t_bytes32,t_struct(PublicKey)4280_storage)"
      },
      {
        "astId": 4376,
        "contract": "@ensdomains/ens-contracts/contracts/resolvers/OwnedResolver.sol:OwnedResolver",
        "label": "texts",
        "offset": 0,
        "slot": "11",
        "type": "t_mapping(t_bytes32,t_mapping(t_string_memory_ptr,t_string_storage))"
      }
    ],
    "types": {
      "t_address": {
        "encoding": "inplace",
        "label": "address",
        "numberOfBytes": "20"
      },
      "t_bytes32": {
        "encoding": "inplace",
        "label": "bytes32",
        "numberOfBytes": "32"
      },
      "t_bytes4": {
        "encoding": "inplace",
        "label": "bytes4",
        "numberOfBytes": "4"
      },
      "t_bytes_storage": {
        "encoding": "bytes",
        "label": "bytes",
        "numberOfBytes": "32"
      },
      "t_mapping(t_bytes32,t_bytes_storage)": {
        "encoding": "mapping",
        "key": "t_bytes32",
        "label": "mapping(bytes32 => bytes)",
        "numberOfBytes": "32",
        "value": "t_bytes_storage"
      },
      "t_mapping(t_bytes32,t_mapping(t_bytes4,t_address))": {
        "encoding": "mapping",
        "key": "t_bytes32",
        "label": "mapping(bytes32 => mapping(bytes4 => address))",
        "numberOfBytes": "32",
        "value": "t_mapping(t_bytes4,t_address)"
      },
      "t_mapping(t_bytes32,t_mapping(t_string_memory_ptr,t_string_storage))": {
        "encoding": "mapping",
        "key": "t_bytes32",
        "label": "mapping(bytes32 => mapping(string => string))",
        "numberOfBytes": "32",
        "value": "t_mapping(t_string_memory_ptr,t_string_storage)"
      },
      "t_mapping(t_bytes32,t_mapping(t_uint16,t_bytes_storage))": {
        "encoding": "mapping",
        "key": "t_bytes32",
        "label": "mapping(bytes32 => mapping(uint16 => bytes))",
        "numberOfBytes": "32",
        "value": "t_mapping(t_uint16,t_bytes_storage)"
      },
      "t_mapping(t_bytes32,t_mapping(t_uint256,t_bytes_storage))": {
        "encoding": "mapping",
        "key": "t_bytes32",
        "label": "mapping(bytes32 => mapping(uint256 => bytes))",
        "numberOfBytes": "32",
        "value": "t_mapping(t_uint256,t_bytes_storage)"
      },
      "t_mapping(t_bytes32,t_mapping(t_uint256,t_mapping(t_bytes32,t_mapping(t_uint16,t_bytes_storage))))": {
        "encoding": "mapping",
        "key": "t_bytes32",
        "label": "mapping(bytes32 => mapping(uint256 => mapping(bytes32 => mapping(uint16 => bytes))))",
        "numberOfBytes": "32",
        "value": "t_mapping(t_uint256,t_mapping(t_bytes32,t_mapping(t_uint16,t_bytes_storage)))"
      },
      "t_mapping(t_bytes32,t_mapping(t_uint256,t_mapping(t_bytes32,t_uint16)))": {
        "encoding": "mapping",
        "key": "t_bytes32",
        "label": "mapping(bytes32 => mapping(uint256 => mapping(bytes32 => uint16)))",
        "numberOfBytes": "32",
        "value": "t_mapping(t_uint256,t_mapping(t_bytes32,t_uint16))"
      },
      "t_mapping(t_bytes32,t_string_storage)": {
        "encoding": "mapping",
        "key": "t_bytes32",
        "label": "mapping(bytes32 => string)",
        "numberOfBytes": "32",
        "value": "t_string_storage"
      },
      "t_mapping(t_bytes32,t_struct(PublicKey)4280_storage)": {
        "encoding": "mapping",
        "key": "t_bytes32",
        "label": "mapping(bytes32 => struct PubkeyResolver.PublicKey)",
        "numberOfBytes": "32",
        "value": "t_struct(PublicKey)4280_storage"
      },
      "t_mapping(t_bytes32,t_uint16)": {
        "encoding": "mapping",
        "key": "t_bytes32",
        "label": "mapping(bytes32 => uint16)",
        "numberOfBytes": "32",
        "value": "t_uint16"
      },
      "t_mapping(t_bytes32,t_uint256)": {
        "encoding": "mapping",
        "key": "t_bytes32",
        "label": "mapping(bytes32 => uint256)",
        "numberOfBytes": "32",
        "value": "t_uint256"
      },
      "t_mapping(t_bytes4,t_address)": {
        "encoding": "mapping",
        "key": "t_bytes4",
        "label": "mapping(bytes4 => address)",
        "numberOfBytes": "32",
        "value": "t_address"
      },
      "t_mapping(t_string_memory_ptr,t_string_storage)": {
        "encoding": "mapping",
        "key": "t_string_memory_ptr",
        "label": "mapping(string => string)",
        "numberOfBytes": "32",
        "value": "t_string_storage"
      },
      "t_mapping(t_uint16,t_bytes_storage)": {
        "encoding": "mapping",
        "key": "t_uint16",
        "label": "mapping(uint16 => bytes)",
        "numberOfBytes": "32",
        "value": "t_bytes_storage"
      },
      "t_mapping(t_uint256,t_bytes_storage)": {
        "encoding": "mapping",
        "key": "t_uint256",
        "label": "mapping(uint256 => bytes)",
        "numberOfBytes": "32",
        "value": "t_bytes_storage"
      },
      "t_mapping(t_uint256,t_mapping(t_bytes32,t_mapping(t_uint16,t_bytes_storage)))": {
        "encoding": "mapping",
        "key": "t_uint256",
        "label": "mapping(uint256 => mapping(bytes32 => mapping(uint16 => bytes)))",
        "numberOfBytes": "32",
        "value": "t_mapping(t_bytes32,t_mapping(t_uint16,t_bytes_storage))"
      },
      "t_mapping(t_uint256,t_mapping(t_bytes32,t_uint16))": {
        "encoding": "mapping",
        "key": "t_uint256",
        "label": "mapping(uint256 => mapping(bytes32 => uint16))",
        "numberOfBytes": "32",
        "value": "t_mapping(t_bytes32,t_uint16)"
      },
      "t_string_memory_ptr": {
        "encoding": "bytes",
        "label": "string",
        "numberOfBytes": "32"
      },
      "t_string_storage": {
        "encoding": "bytes",
        "label": "string",
        "numberOfBytes": "32"
      },
      "t_struct(PublicKey)4280_storage": {
        "encoding": "inplace",
        "label": "struct PubkeyResolver.PublicKey",
        "members": [
          {
            "astId": 4277,
            "contract": "@ensdomains/ens-contracts/contracts/resolvers/OwnedResolver.sol:OwnedResolver",
            "label": "x",
            "offset": 0,
            "slot": "0",
            "type": "t_bytes32"
          },
          {
            "astId": 4279,
            "contract": "@ensdomains/ens-contracts/contracts/resolvers/OwnedResolver.sol:OwnedResolver",
            "label": "y",
            "offset": 0,
            "slot": "1",
            "type": "t_bytes32"
          }
        ],
        "numberOfBytes": "64"
      },
      "t_uint16": {
        "encoding": "inplace",
        "label": "uint16",
        "numberOfBytes": "2"
      },
      "t_uint256": {
        "encoding": "inplace",
        "label": "uint256",
        "numberOfBytes": "32"
      }
    }
  }
}