{
  "address": "0xC788d2709531823EDc8Baa6FeE53a30aB8B12a10",
  "abi": [
    {
      "inputs": [
        {
          "internalType": "address",
          "name": "creator",
          "type": "address"
        }
      ],
      "stateMutability": "nonpayable",
      "type": "constructor"
    },
    {
      "anonymous": false,
      "inputs": [
        {
          "indexed": true,
          "internalType": "bytes32",
          "name": "role",
          "type": "bytes32"
        },
        {
          "indexed": true,
          "internalType": "bytes32",
          "name": "previousAdminRole",
          "type": "bytes32"
        },
        {
          "indexed": true,
          "internalType": "bytes32",
          "name": "newAdminRole",
          "type": "bytes32"
        }
      ],
      "name": "RoleAdminChanged",
      "type": "event"
    },
    {
      "anonymous": false,
      "inputs": [
        {
          "indexed": true,
          "internalType": "bytes32",
          "name": "role",
          "type": "bytes32"
        },
        {
          "indexed": true,
          "internalType": "address",
          "name": "account",
          "type": "address"
        },
        {
          "indexed": true,
          "internalType": "address",
          "name": "sender",
          "type": "address"
        }
      ],
      "name": "RoleGranted",
      "type": "event"
    },
    {
      "anonymous": false,
      "inputs": [
        {
          "indexed": true,
          "internalType": "bytes32",
          "name": "role",
          "type": "bytes32"
        },
        {
          "indexed": true,
          "internalType": "address",
          "name": "account",
          "type": "address"
        },
        {
          "indexed": true,
          "internalType": "address",
          "name": "sender",
          "type": "address"
        }
      ],
      "name": "RoleRevoked",
      "type": "event"
    },
    {
      "anonymous": false,
      "inputs": [
        {
          "indexed": true,
          "internalType": "address",
          "name": "userAddr",
          "type": "address"
        },
        {
          "indexed": false,
          "internalType": "uint8",
          "name": "userLevel",
          "type": "uint8"
        },
        {
          "indexed": false,
          "internalType": "uint256",
          "name": "endDate",
          "type": "uint256"
        }
      ],
      "name": "SetSubscription",
      "type": "event"
    },
    {
      "inputs": [],
      "name": "DEFAULT_ADMIN_ROLE",
      "outputs": [
        {
          "internalType": "bytes32",
          "name": "",
          "type": "bytes32"
        }
      ],
      "stateMutability": "view",
      "type": "function"
    },
    {
      "inputs": [],
      "name": "SUBS_ROLE",
      "outputs": [
        {
          "internalType": "bytes32",
          "name": "",
          "type": "bytes32"
        }
      ],
      "stateMutability": "view",
      "type": "function"
    },
    {
      "inputs": [
        {
          "internalType": "address",
          "name": "userAddr",
          "type": "address"
        },
        {
          "internalType": "uint8",
          "name": "contractLevel",
          "type": "uint8"
        }
      ],
      "name": "checkSubscription",
      "outputs": [
        {
          "internalType": "bool",
          "name": "",
          "type": "bool"
        }
      ],
      "stateMutability": "view",
      "type": "function"
    },
    {
      "inputs": [
        {
          "internalType": "bytes32",
          "name": "role",
          "type": "bytes32"
        }
      ],
      "name": "getRoleAdmin",
      "outputs": [
        {
          "internalType": "bytes32",
          "name": "",
          "type": "bytes32"
        }
      ],
      "stateMutability": "view",
      "type": "function"
    },
    {
      "inputs": [
        {
          "internalType": "bytes32",
          "name": "role",
          "type": "bytes32"
        },
        {
          "internalType": "uint256",
          "name": "index",
          "type": "uint256"
        }
      ],
      "name": "getRoleMember",
      "outputs": [
        {
          "internalType": "address",
          "name": "",
          "type": "address"
        }
      ],
      "stateMutability": "view",
      "type": "function"
    },
    {
      "inputs": [
        {
          "internalType": "bytes32",
          "name": "role",
          "type": "bytes32"
        }
      ],
      "name": "getRoleMemberCount",
      "outputs": [
        {
          "internalType": "uint256",
          "name": "",
          "type": "uint256"
        }
      ],
      "stateMutability": "view",
      "type": "function"
    },
    {
      "inputs": [
        {
          "internalType": "address",
          "name": "userAddr",
          "type": "address"
        }
      ],
      "name": "getSubscription",
      "outputs": [
        {
          "components": [
            {
              "internalType": "uint8",
              "name": "level",
              "type": "uint8"
            },
            {
              "internalType": "uint256",
              "name": "endDate",
              "type": "uint256"
            }
          ],
          "internalType": "struct SubscriptionHandler.Subscription",
          "name": "",
          "type": "tuple"
        }
      ],
      "stateMutability": "view",
      "type": "function"
    },
    {
      "inputs": [
        {
          "internalType": "bytes32",
          "name": "role",
          "type": "bytes32"
        },
        {
          "internalType": "address",
          "name": "account",
          "type": "address"
        }
      ],
      "name": "grantRole",
      "outputs": [],
      "stateMutability": "nonpayable",
      "type": "function"
    },
    {
      "inputs": [
        {
          "internalType": "bytes32",
          "name": "role",
          "type": "bytes32"
        },
        {
          "internalType": "address",
          "name": "account",
          "type": "address"
        }
      ],
      "name": "hasRole",
      "outputs": [
        {
          "internalType": "bool",
          "name": "",
          "type": "bool"
        }
      ],
      "stateMutability": "view",
      "type": "function"
    },
    {
      "inputs": [
        {
          "internalType": "bytes32",
          "name": "role",
          "type": "bytes32"
        },
        {
          "internalType": "address",
          "name": "account",
          "type": "address"
        }
      ],
      "name": "renounceRole",
      "outputs": [],
      "stateMutability": "nonpayable",
      "type": "function"
    },
    {
      "inputs": [
        {
          "internalType": "bytes32",
          "name": "role",
          "type": "bytes32"
        },
        {
          "internalType": "address",
          "name": "account",
          "type": "address"
        }
      ],
      "name": "revokeRole",
      "outputs": [],
      "stateMutability": "nonpayable",
      "type": "function"
    },
    {
      "inputs": [
        {
          "internalType": "address",
          "name": "userAddr",
          "type": "address"
        },
        {
          "internalType": "uint8",
          "name": "userLevel",
          "type": "uint8"
        },
        {
          "internalType": "uint256",
          "name": "userPeriod",
          "type": "uint256"
        }
      ],
      "name": "setSubscription",
      "outputs": [],
      "stateMutability": "nonpayable",
      "type": "function"
    },
    {
      "inputs": [
        {
          "internalType": "bytes4",
          "name": "interfaceId",
          "type": "bytes4"
        }
      ],
      "name": "supportsInterface",
      "outputs": [
        {
          "internalType": "bool",
          "name": "",
          "type": "bool"
        }
      ],
      "stateMutability": "view",
      "type": "function"
    }
  ],
  "transactionHash": "0xfb000f9574d6f16a12752a0462d8c7776c35f8867efcc2afeb0f75310fd75e46",
  "args": [
    "0xBeee02B6884e92Ac9a4477b4A045E86B49A7EBd3"
  ],
  "solcInputHash": "e1af43b2c04c1effdf1f0485c7ba63ee",
  "bytecode": "0x60806040523480156200001157600080fd5b5060405162000f8c38038062000f8c8339810160408190526200003491620001e7565b6200004f60008051602062000f6c8339815191523362000082565b336001600160a01b038216146200007b576200007b60008051602062000f6c8339815191528262000082565b5062000217565b620000998282620000c560201b620004601760201c565b6000828152600160209081526040909120620000c09183906200046e620000d5821b17901c565b505050565b620000d18282620000f5565b5050565b6000620000ec836001600160a01b03841662000195565b90505b92915050565b6000828152602081815260408083206001600160a01b038516845290915290205460ff16620000d1576000828152602081815260408083206001600160a01b03851684529091529020805460ff19166001179055620001513390565b6001600160a01b0316816001600160a01b0316837f2f8788117e7eff1d82e926ec794901d17c78024a50270940304540a733656f0d60405160405180910390a45050565b6000818152600183016020526040812054620001de57508154600181810184556000848152602080822090930184905584548482528286019093526040902091909155620000ef565b506000620000ef565b600060208284031215620001f9578081fd5b81516001600160a01b038116811462000210578182fd5b9392505050565b610d4580620002276000396000f3fe608060405234801561001057600080fd5b50600436106100cf5760003560e01c8063671bb6c61161008c578063a217fddf11610066578063a217fddf1461022f578063ae4d3cda14610237578063ca15c8731461025e578063d547741f1461027157600080fd5b8063671bb6c6146101de5780639010d07c146101f157806391d148541461021c57600080fd5b806301ffc9a7146100d457806308d1a9c4146100fc5780630cbebc2414610111578063248a9ca3146101875780632f2ff15d146101b857806336568abe146101cb575b600080fd5b6100e76100e2366004610b94565b610284565b60405190151581526020015b60405180910390f35b61010f61010a366004610afe565b6102af565b005b61016961011f366004610ab2565b6040805180820190915260008082526020820152506001600160a01b03166000908152600260209081526040918290208251808401909352805460ff168352600101549082015290565b60408051825160ff16815260209283015192810192909252016100f3565b6101aa610195366004610b39565b60009081526020819052604090206001015490565b6040519081526020016100f3565b61010f6101c6366004610b51565b61035b565b61010f6101d9366004610b51565b610382565b6100e76101ec366004610acc565b6103a4565b6102046101ff366004610b73565b6103fe565b6040516001600160a01b0390911681526020016100f3565b6100e761022a366004610b51565b610416565b6101aa600081565b6101aa7f6539aee8482ae4a57d45667d0810beb001fad04b73dc572c6c3fcaf54804684981565b6101aa61026c366004610b39565b61043f565b61010f61027f366004610b51565b610456565b60006001600160e01b03198216635a05180f60e01b14806102a957506102a982610483565b92915050565b7f6539aee8482ae4a57d45667d0810beb001fad04b73dc572c6c3fcaf5480468496102da81336104b8565b60006102e68342610c64565b6001600160a01b038616600081815260026020908152604091829020805460ff191660ff8a1690811782556001909101859055825190815290810184905292935090917f84270d606ecd69f91665e1b2c2219528c74a9f44c31502d8456ab8ffe0b480d9910160405180910390a25050505050565b6103658282610525565b600082815260016020526040902061037d908261046e565b505050565b61038c828261054b565b600082815260016020526040902061037d90826105c5565b6001600160a01b038216600090815260026020526040812054819060ff8085169116108015906103ee57506001600160a01b03841660009081526002602052604090206001015442105b156103f7575060015b9392505050565b60008281526001602052604081206103f790836105da565b6000918252602082815260408084206001600160a01b0393909316845291905290205460ff1690565b60008181526001602052604081206102a9906105e6565b61038c82826105f0565b61046a8282610616565b5050565b60006103f7836001600160a01b03841661069a565b60006001600160e01b03198216637965db0b60e01b14806102a957506301ffc9a760e01b6001600160e01b03198316146102a9565b6104c28282610416565b61046a576104da816001600160a01b031660146106e9565b6104e58360206106e9565b6040516020016104f6929190610bbc565b60408051601f198184030181529082905262461bcd60e51b825261051c91600401610c31565b60405180910390fd5b60008281526020819052604090206001015461054181336104b8565b61037d8383610616565b6001600160a01b03811633146105bb5760405162461bcd60e51b815260206004820152602f60248201527f416363657373436f6e74726f6c3a2063616e206f6e6c792072656e6f756e636560448201526e103937b632b9903337b91039b2b63360891b606482015260840161051c565b61046a82826108cb565b60006103f7836001600160a01b038416610930565b60006103f78383610a4d565b60006102a9825490565b60008281526020819052604090206001015461060c81336104b8565b61037d83836108cb565b6106208282610416565b61046a576000828152602081815260408083206001600160a01b03851684529091529020805460ff191660011790556106563390565b6001600160a01b0316816001600160a01b0316837f2f8788117e7eff1d82e926ec794901d17c78024a50270940304540a733656f0d60405160405180910390a45050565b60008181526001830160205260408120546106e1575081546001818101845560008481526020808220909301849055845484825282860190935260409020919091556102a9565b5060006102a9565b606060006106f8836002610c7c565b610703906002610c64565b67ffffffffffffffff81111561072957634e487b7160e01b600052604160045260246000fd5b6040519080825280601f01601f191660200182016040528015610753576020820181803683370190505b509050600360fc1b8160008151811061077c57634e487b7160e01b600052603260045260246000fd5b60200101906001600160f81b031916908160001a905350600f60fb1b816001815181106107b957634e487b7160e01b600052603260045260246000fd5b60200101906001600160f81b031916908160001a90535060006107dd846002610c7c565b6107e8906001610c64565b90505b600181111561087c576f181899199a1a9b1b9c1cb0b131b232b360811b85600f166010811061082a57634e487b7160e01b600052603260045260246000fd5b1a60f81b82828151811061084e57634e487b7160e01b600052603260045260246000fd5b60200101906001600160f81b031916908160001a90535060049490941c9361087581610ce2565b90506107eb565b5083156103f75760405162461bcd60e51b815260206004820181905260248201527f537472696e67733a20686578206c656e67746820696e73756666696369656e74604482015260640161051c565b6108d58282610416565b1561046a576000828152602081815260408083206001600160a01b0385168085529252808320805460ff1916905551339285917ff6391f5c32d9c69d2a47ea670b442974b53935d1edc7fd64eb21e047a839171b9190a45050565b60008181526001830160205260408120548015610a43576000610954600183610c9b565b855490915060009061096890600190610c9b565b90508181146109e957600086600001828154811061099657634e487b7160e01b600052603260045260246000fd5b90600052602060002001549050808760000184815481106109c757634e487b7160e01b600052603260045260246000fd5b6000918252602080832090910192909255918252600188019052604090208390555b8554869080610a0857634e487b7160e01b600052603160045260246000fd5b6001900381819060005260206000200160009055905585600101600086815260200190815260200160002060009055600193505050506102a9565b60009150506102a9565b6000826000018281548110610a7257634e487b7160e01b600052603260045260246000fd5b9060005260206000200154905092915050565b80356001600160a01b0381168114610a9c57600080fd5b919050565b803560ff81168114610a9c57600080fd5b600060208284031215610ac3578081fd5b6103f782610a85565b60008060408385031215610ade578081fd5b610ae783610a85565b9150610af560208401610aa1565b90509250929050565b600080600060608486031215610b12578081fd5b610b1b84610a85565b9250610b2960208501610aa1565b9150604084013590509250925092565b600060208284031215610b4a578081fd5b5035919050565b60008060408385031215610b63578182fd5b82359150610af560208401610a85565b60008060408385031215610b85578182fd5b50508035926020909101359150565b600060208284031215610ba5578081fd5b81356001600160e01b0319811681146103f7578182fd5b7f416363657373436f6e74726f6c3a206163636f756e7420000000000000000000815260008351610bf4816017850160208801610cb2565b7001034b99036b4b9b9b4b733903937b6329607d1b6017918401918201528351610c25816028840160208801610cb2565b01602801949350505050565b6020815260008251806020840152610c50816040850160208701610cb2565b601f01601f19169190910160400192915050565b60008219821115610c7757610c77610cf9565b500190565b6000816000190483118215151615610c9657610c96610cf9565b500290565b600082821015610cad57610cad610cf9565b500390565b60005b83811015610ccd578181015183820152602001610cb5565b83811115610cdc576000848401525b50505050565b600081610cf157610cf1610cf9565b506000190190565b634e487b7160e01b600052601160045260246000fdfea2646970667358221220c3e466b068e113f047fa94234df23e1c91d0e992a817cc235a4efd266406c79964736f6c634300080400336539aee8482ae4a57d45667d0810beb001fad04b73dc572c6c3fcaf548046849",
  "devdoc": {
    "kind": "dev",
    "methods": {
      "getRoleAdmin(bytes32)": {
        "details": "Returns the admin role that controls `role`. See {grantRole} and {revokeRole}. To change a role's admin, use {_setRoleAdmin}."
      },
      "getRoleMember(bytes32,uint256)": {
        "details": "Returns one of the accounts that have `role`. `index` must be a value between 0 and {getRoleMemberCount}, non-inclusive. Role bearers are not sorted in any particular way, and their ordering may change at any point. WARNING: When using {getRoleMember} and {getRoleMemberCount}, make sure you perform all queries on the same block. See the following https://forum.openzeppelin.com/t/iterating-over-elements-on-enumerableset-in-openzeppelin-contracts/2296[forum post] for more information."
      },
      "getRoleMemberCount(bytes32)": {
        "details": "Returns the number of accounts that have `role`. Can be used together with {getRoleMember} to enumerate all bearers of a role."
      },
      "grantRole(bytes32,address)": {
        "details": "Overload {grantRole} to track enumerable memberships"
      },
      "hasRole(bytes32,address)": {
        "details": "Returns `true` if `account` has been granted `role`."
      },
      "renounceRole(bytes32,address)": {
        "details": "Overload {renounceRole} to track enumerable memberships"
      },
      "revokeRole(bytes32,address)": {
        "details": "Overload {revokeRole} to track enumerable memberships"
      },
      "supportsInterface(bytes4)": {
        "details": "See {IERC165-supportsInterface}."
      }
    },
    "version": 1
  },
  "userdoc": {
    "kind": "user",
    "methods": {},
    "version": 1
  },
  "storageLayout": {
    "storage": [
      {
        "astId": 4465,
        "contract": "contracts/subscription.sol:SubscriptionHandler",
        "label": "_roles",
        "offset": 0,
        "slot": "0",
        "type": "t_mapping(t_bytes32,t_struct(RoleData)4460_storage)"
      },
      {
        "astId": 4766,
        "contract": "contracts/subscription.sol:SubscriptionHandler",
        "label": "_roleMembers",
        "offset": 0,
        "slot": "1",
        "type": "t_mapping(t_bytes32,t_struct(AddressSet)7576_storage)"
      },
      {
        "astId": 9046,
        "contract": "contracts/subscription.sol:SubscriptionHandler",
        "label": "subscriptions",
        "offset": 0,
        "slot": "2",
        "type": "t_mapping(t_address,t_struct(Subscription)9036_storage)"
      }
    ],
    "types": {
      "t_address": {
        "encoding": "inplace",
        "label": "address",
        "numberOfBytes": "20"
      },
      "t_array(t_bytes32)dyn_storage": {
        "base": "t_bytes32",
        "encoding": "dynamic_array",
        "label": "bytes32[]",
        "numberOfBytes": "32"
      },
      "t_bool": {
        "encoding": "inplace",
        "label": "bool",
        "numberOfBytes": "1"
      },
      "t_bytes32": {
        "encoding": "inplace",
        "label": "bytes32",
        "numberOfBytes": "32"
      },
      "t_mapping(t_address,t_bool)": {
        "encoding": "mapping",
        "key": "t_address",
        "label": "mapping(address => bool)",
        "numberOfBytes": "32",
        "value": "t_bool"
      },
      "t_mapping(t_address,t_struct(Subscription)9036_storage)": {
        "encoding": "mapping",
        "key": "t_address",
        "label": "mapping(address => struct SubscriptionHandler.Subscription)",
        "numberOfBytes": "32",
        "value": "t_struct(Subscription)9036_storage"
      },
      "t_mapping(t_bytes32,t_struct(AddressSet)7576_storage)": {
        "encoding": "mapping",
        "key": "t_bytes32",
        "label": "mapping(bytes32 => struct EnumerableSet.AddressSet)",
        "numberOfBytes": "32",
        "value": "t_struct(AddressSet)7576_storage"
      },
      "t_mapping(t_bytes32,t_struct(RoleData)4460_storage)": {
        "encoding": "mapping",
        "key": "t_bytes32",
        "label": "mapping(bytes32 => struct AccessControl.RoleData)",
        "numberOfBytes": "32",
        "value": "t_struct(RoleData)4460_storage"
      },
      "t_mapping(t_bytes32,t_uint256)": {
        "encoding": "mapping",
        "key": "t_bytes32",
        "label": "mapping(bytes32 => uint256)",
        "numberOfBytes": "32",
        "value": "t_uint256"
      },
      "t_struct(AddressSet)7576_storage": {
        "encoding": "inplace",
        "label": "struct EnumerableSet.AddressSet",
        "members": [
          {
            "astId": 7575,
            "contract": "contracts/subscription.sol:SubscriptionHandler",
            "label": "_inner",
            "offset": 0,
            "slot": "0",
            "type": "t_struct(Set)7275_storage"
          }
        ],
        "numberOfBytes": "64"
      },
      "t_struct(RoleData)4460_storage": {
        "encoding": "inplace",
        "label": "struct AccessControl.RoleData",
        "members": [
          {
            "astId": 4457,
            "contract": "contracts/subscription.sol:SubscriptionHandler",
            "label": "members",
            "offset": 0,
            "slot": "0",
            "type": "t_mapping(t_address,t_bool)"
          },
          {
            "astId": 4459,
            "contract": "contracts/subscription.sol:SubscriptionHandler",
            "label": "adminRole",
            "offset": 0,
            "slot": "1",
            "type": "t_bytes32"
          }
        ],
        "numberOfBytes": "64"
      },
      "t_struct(Set)7275_storage": {
        "encoding": "inplace",
        "label": "struct EnumerableSet.Set",
        "members": [
          {
            "astId": 7270,
            "contract": "contracts/subscription.sol:SubscriptionHandler",
            "label": "_values",
            "offset": 0,
            "slot": "0",
            "type": "t_array(t_bytes32)dyn_storage"
          },
          {
            "astId": 7274,
            "contract": "contracts/subscription.sol:SubscriptionHandler",
            "label": "_indexes",
            "offset": 0,
            "slot": "1",
            "type": "t_mapping(t_bytes32,t_uint256)"
          }
        ],
        "numberOfBytes": "64"
      },
      "t_struct(Subscription)9036_storage": {
        "encoding": "inplace",
        "label": "struct SubscriptionHandler.Subscription",
        "members": [
          {
            "astId": 9033,
            "contract": "contracts/subscription.sol:SubscriptionHandler",
            "label": "level",
            "offset": 0,
            "slot": "0",
            "type": "t_uint8"
          },
          {
            "astId": 9035,
            "contract": "contracts/subscription.sol:SubscriptionHandler",
            "label": "endDate",
            "offset": 0,
            "slot": "1",
            "type": "t_uint256"
          }
        ],
        "numberOfBytes": "64"
      },
      "t_uint256": {
        "encoding": "inplace",
        "label": "uint256",
        "numberOfBytes": "32"
      },
      "t_uint8": {
        "encoding": "inplace",
        "label": "uint8",
        "numberOfBytes": "1"
      }
    }
  }
}